{
    "_format": "hh-sol-artifact-1",
    "contractName": "StakingContract",
    "sourceName": "contracts/StakingContract.sol",
    "abi": [
        {
            "inputs": [
                {
                    "internalType": "address",
                    "name": "stakingToken",
                    "type": "address"
                }
            ],
            "stateMutability": "nonpayable",
            "type": "constructor"
        },
        {
            "inputs": [],
            "name": "ReentrancyGuardReentrantCall",
            "type": "error"
        },
        {
            "inputs": [],
            "name": "claimReward",
            "outputs": [],
            "stateMutability": "nonpayable",
            "type": "function"
        },
        {
            "inputs": [
                {
                    "internalType": "uint256",
                    "name": "lockTime",
                    "type": "uint256"
                }
            ],
            "name": "claimRewardAndUnstake",
            "outputs": [],
            "stateMutability": "nonpayable",
            "type": "function"
        },
        {
            "inputs": [
                {
                    "internalType": "address",
                    "name": "account",
                    "type": "address"
                }
            ],
            "name": "earned",
            "outputs": [
                {
                    "internalType": "uint256",
                    "name": "",
                    "type": "uint256"
                }
            ],
            "stateMutability": "view",
            "type": "function"
        },
        {
            "inputs": [],
            "name": "getRewardRates",
            "outputs": [
                {
                    "internalType": "uint32[]",
                    "name": "",
                    "type": "uint32[]"
                }
            ],
            "stateMutability": "view",
            "type": "function"
        },
        {
            "inputs": [],
            "name": "isOwner",
            "outputs": [
                {
                    "internalType": "bool",
                    "name": "",
                    "type": "bool"
                }
            ],
            "stateMutability": "view",
            "type": "function"
        },
        {
            "inputs": [
                {
                    "internalType": "uint256",
                    "name": "amount",
                    "type": "uint256"
                },
                {
                    "internalType": "uint8",
                    "name": "sType",
                    "type": "uint8"
                }
            ],
            "name": "stake",
            "outputs": [],
            "stateMutability": "nonpayable",
            "type": "function"
        },
        {
            "inputs": [],
            "name": "token",
            "outputs": [
                {
                    "internalType": "contract IERC20",
                    "name": "",
                    "type": "address"
                }
            ],
            "stateMutability": "view",
            "type": "function"
        },
        {
            "inputs": [
                {
                    "internalType": "address",
                    "name": "",
                    "type": "address"
                },
                {
                    "internalType": "uint256",
                    "name": "",
                    "type": "uint256"
                }
            ],
            "name": "totalStakings",
            "outputs": [
                {
                    "internalType": "uint256",
                    "name": "balance",
                    "type": "uint256"
                },
                {
                    "internalType": "uint256",
                    "name": "claimed",
                    "type": "uint256"
                },
                {
                    "internalType": "uint256",
                    "name": "rewards",
                    "type": "uint256"
                },
                {
                    "internalType": "uint8",
                    "name": "stakingType",
                    "type": "uint8"
                }
            ],
            "stateMutability": "view",
            "type": "function"
        },
        {
            "inputs": [
                {
                    "internalType": "uint8",
                    "name": "sType",
                    "type": "uint8"
                },
                {
                    "internalType": "uint32",
                    "name": "rate",
                    "type": "uint32"
                }
            ],
            "name": "updateRewardRate",
            "outputs": [],
            "stateMutability": "nonpayable",
            "type": "function"
        },
        {
            "inputs": [
                {
                    "internalType": "address",
                    "name": "",
                    "type": "address"
                },
                {
                    "internalType": "uint256",
                    "name": "",
                    "type": "uint256"
                }
            ],
            "name": "userLockTimes",
            "outputs": [
                {
                    "internalType": "uint256",
                    "name": "",
                    "type": "uint256"
                }
            ],
            "stateMutability": "view",
            "type": "function"
        },
        {
            "inputs": [
                {
                    "internalType": "uint256",
                    "name": "lockTime",
                    "type": "uint256"
                }
            ],
            "name": "userStakingRecordDetails",
            "outputs": [
                {
                    "internalType": "uint256",
                    "name": "",
                    "type": "uint256"
                },
                {
                    "internalType": "uint256",
                    "name": "",
                    "type": "uint256"
                },
                {
                    "internalType": "uint256",
                    "name": "",
                    "type": "uint256"
                },
                {
                    "internalType": "uint8",
                    "name": "",
                    "type": "uint8"
                },
                {
                    "internalType": "bool",
                    "name": "",
                    "type": "bool"
                }
            ],
            "stateMutability": "view",
            "type": "function"
        },
        {
            "inputs": [],
            "name": "userStakingStatus",
            "outputs": [
                {
                    "internalType": "uint256",
                    "name": "",
                    "type": "uint256"
                },
                {
                    "internalType": "uint256",
                    "name": "",
                    "type": "uint256"
                },
                {
                    "internalType": "uint8[]",
                    "name": "",
                    "type": "uint8[]"
                }
            ],
            "stateMutability": "view",
            "type": "function"
        },
        {
            "inputs": [],
            "name": "userStakingStatusRecords",
            "outputs": [
                {
                    "internalType": "uint256[]",
                    "name": "",
                    "type": "uint256[]"
                }
            ],
            "stateMutability": "view",
            "type": "function"
        },
        {
            "inputs": [
                {
                    "internalType": "uint256",
                    "name": "amount",
                    "type": "uint256"
                }
            ],
            "name": "withdraw",
            "outputs": [],
            "stateMutability": "nonpayable",
            "type": "function"
        }
    ],
    "bytecode": "0x60c0604052620186a063ffffffff1660a09063ffffffff168152506040518060a001604052806213c68063ffffffff168152602001623b538063ffffffff1681526020016276a70063ffffffff168152602001629e340063ffffffff1681526020016301e1338063ffffffff1681525060049060056200008192919062000194565b506040518060a00160405280601b61ffff168152602001603761ffff168152602001605261ffff168152602001608961ffff16815260200161019b61ffff168152506005906005620000d5929190620001ee565b50348015620000e357600080fd5b5060405162002ff338038062002ff383398181016040528101906200010991906200032c565b600160008190555080600160006101000a81548173ffffffffffffffffffffffffffffffffffffffff021916908373ffffffffffffffffffffffffffffffffffffffff1602179055503373ffffffffffffffffffffffffffffffffffffffff1660808173ffffffffffffffffffffffffffffffffffffffff168152505042600381905550506200035e565b828054828255906000526020600020908101928215620001db579160200282015b82811115620001da578251829063ffffffff16905591602001919060010190620001b5565b5b509050620001ea9190620002a3565b5090565b82805482825590600052602060002090600701600890048101928215620002905791602002820160005b838211156200025c57835183826101000a81548163ffffffff021916908361ffff160217905550926020019260040160208160030104928301926001030262000218565b80156200028e5782816101000a81549063ffffffff02191690556004016020816003010492830192600103026200025c565b505b5090506200029f9190620002a3565b5090565b5b80821115620002be576000816000905550600101620002a4565b5090565b600080fd5b600073ffffffffffffffffffffffffffffffffffffffff82169050919050565b6000620002f482620002c7565b9050919050565b6200030681620002e7565b81146200031257600080fd5b50565b6000815190506200032681620002fb565b92915050565b600060208284031215620003455762000344620002c2565b5b6000620003558482850162000315565b91505092915050565b60805160a051612c686200038b6000396000611bcc01526000818161109501526111010152612c686000f3fe608060405234801561001057600080fd5b50600436106100e95760003560e01c8063972a68d81161008c578063d972a47d11610066578063d972a47d1461023c578063f99d15611461026f578063fc0c546a1461028d578063fc29be77146102ab576100e9565b8063972a68d8146101e6578063b88a802f14610202578063ba6bad811461020c576100e9565b80632e1a7d4d116100c85780632e1a7d4d14610158578063473160b414610174578063570e32dd146101945780638f32d59b146101c8576100e9565b80628cc262146100ee5780630c056a311461011e57806310087fb11461013c575b600080fd5b61010860048036038101906101039190611d08565b6102c7565b6040516101159190611d4e565b60405180910390f35b6101266103aa565b6040516101339190611e37565b60405180910390f35b61015660048036038101906101519190611ebe565b610434565b005b610172600480360381019061016d9190611efe565b610866565b005b61017c610dac565b60405161018b93929190611fe9565b60405180910390f35b6101ae60048036038101906101a99190611efe565b610fc5565b6040516101bf959493929190612051565b60405180910390f35b6101d0611091565b6040516101dd91906120a4565b60405180910390f35b61020060048036038101906101fb91906120eb565b6110e7565b005b61020a6111c6565b005b6102266004803603810190610221919061212b565b611683565b6040516102339190611d4e565b60405180910390f35b6102566004803603810190610251919061212b565b6116b4565b604051610266949392919061216b565b60405180910390f35b6102776116fe565b604051610284919061226e565b60405180910390f35b610295611793565b6040516102a291906122ef565b60405180910390f35b6102c560048036038101906102c09190611efe565b6117b9565b005b6000806000905060005b600760008573ffffffffffffffffffffffffffffffffffffffff1673ffffffffffffffffffffffffffffffffffffffff168152602001908152602001600020805490508110156103a057600061038285600760008873ffffffffffffffffffffffffffffffffffffffff1673ffffffffffffffffffffffffffffffffffffffff16815260200190815260200160002084815481106103725761037161230a565b5b9060005260206000200154611b08565b905080836103909190612368565b92505080806001019150506102d1565b5080915050919050565b60606000600580548060200260200160405190810160405280929190818152602001828054801561042657602002820191906000526020600020906000905b82829054906101000a900463ffffffff1663ffffffff16815260200190600401906020826003010492830192600103820291508084116103e95790505b505050505090508091505090565b8160008103610478576040517f08c379a000000000000000000000000000000000000000000000000000000000815260040161046f9061241f565b60405180910390fd5b336000600660008373ffffffffffffffffffffffffffffffffffffffff1673ffffffffffffffffffffffffffffffffffffffff16815260200190815260200160002090506000600760008473ffffffffffffffffffffffffffffffffffffffff1673ffffffffffffffffffffffffffffffffffffffff16815260200190815260200160002080548060200260200160405190810160405280929190818152602001828054801561054757602002820191906000526020600020905b815481526020019060010190808311610533575b5050505050905060005b81518110156105c4576000610580858484815181106105735761057261230a565b5b6020026020010151611b08565b9050808460008585815181106105995761059861230a565b5b6020026020010151815260200190815260200160002060020181905550508080600101915050610551565b50426003819055506000600660003373ffffffffffffffffffffffffffffffffffffffff1673ffffffffffffffffffffffffffffffffffffffff1681526020019081526020016000209050610617611c7a565b8781600001818152505086816060019060ff16908160ff1681525050600081602001818152505060008160400181815250508082600060048a60ff16815481106106645761066361230a565b5b90600052602060002001544261067a9190612368565b815260200190815260200160002060008201518160000155602082015181600101556040820151816002015560608201518160030160006101000a81548160ff021916908360ff160217905550905050600760003373ffffffffffffffffffffffffffffffffffffffff1673ffffffffffffffffffffffffffffffffffffffff16815260200190815260200160002060048860ff16815481106107205761071f61230a565b5b9060005260206000200154426107369190612368565b9080600181540180825580915050600190039060005260206000200160009091909190915055876002600082825461076e9190612368565b925050819055506000600160009054906101000a900473ffffffffffffffffffffffffffffffffffffffff1673ffffffffffffffffffffffffffffffffffffffff166323b872dd33308c6040518463ffffffff1660e01b81526004016107d69392919061244e565b6020604051808303816000875af11580156107f5573d6000803e3d6000fd5b505050506040513d601f19601f8201168201806040525081019061081991906124b1565b90508061085b576040517f08c379a000000000000000000000000000000000000000000000000000000000815260040161085290612576565b60405180910390fd5b505050505050505050565b80600081036108aa576040517f08c379a00000000000000000000000000000000000000000000000000000000081526004016108a19061241f565b60405180910390fd5b336000600660008373ffffffffffffffffffffffffffffffffffffffff1673ffffffffffffffffffffffffffffffffffffffff16815260200190815260200160002090506000600760008473ffffffffffffffffffffffffffffffffffffffff1673ffffffffffffffffffffffffffffffffffffffff16815260200190815260200160002080548060200260200160405190810160405280929190818152602001828054801561097957602002820191906000526020600020905b815481526020019060010190808311610965575b5050505050905060005b81518110156109f65760006109b2858484815181106109a5576109a461230a565b5b6020026020010151611b08565b9050808460008585815181106109cb576109ca61230a565b5b6020026020010151815260200190815260200160002060020181905550508080600101915050610983565b50426003819055506000600660003373ffffffffffffffffffffffffffffffffffffffff1673ffffffffffffffffffffffffffffffffffffffff1681526020019081526020016000209050600080600760003373ffffffffffffffffffffffffffffffffffffffff1673ffffffffffffffffffffffffffffffffffffffff168152602001908152602001600020805480602002602001604051908101604052809291908181526020018280548015610acd57602002820191906000526020600020905b815481526020019060010190808311610ab9575b5050505050905060005b8151811015610b575742828281518110610af457610af361230a565b5b60200260200101511015610b4457836000838381518110610b1857610b1761230a565b5b602002602001015181526020019081526020016000206000015483610b3d9190612368565b9250610b49565b610b4a565b5b8080600101915050610ad7565b5087821015610b9b576040517f08c379a0000000000000000000000000000000000000000000000000000000008152600401610b9290612608565b60405180910390fd5b600088905060005b8251811015610c585742838281518110610bc057610bbf61230a565b5b602002602001015111610c4b576000856000858481518110610be557610be461230a565b5b60200260200101518152602001908152602001600020905082816000015410610c2d5782816000016000828254610c1c9190612628565b925050819055506000925050610c58565b806000015483610c3d9190612628565b925060008160000181905550505b8080600101915050610ba3565b5060008114610c9c576040517f08c379a0000000000000000000000000000000000000000000000000000000008152600401610c93906126f4565b60405180910390fd5b426003819055508860026000828254610cb59190612628565b925050819055506000600160009054906101000a900473ffffffffffffffffffffffffffffffffffffffff1673ffffffffffffffffffffffffffffffffffffffff1663a9059cbb338c6040518363ffffffff1660e01b8152600401610d1b929190612714565b6020604051808303816000875af1158015610d3a573d6000803e3d6000fd5b505050506040513d601f19601f82011682018060405250810190610d5e91906124b1565b905080610da0576040517f08c379a0000000000000000000000000000000000000000000000000000000008152600401610d97906127d5565b60405180910390fd5b50505050505050505050565b60008060606000600760003373ffffffffffffffffffffffffffffffffffffffff1673ffffffffffffffffffffffffffffffffffffffff168152602001908152602001600020805480602002602001604051908101604052809291908181526020018280548015610e3c57602002820191906000526020600020905b815481526020019060010190808311610e28575b505050505090506000806000835167ffffffffffffffff811115610e6357610e626127f5565b5b604051908082528060200260200182016040528015610e915781602001602082028036833780820191505090505b50905060005b8451811015610fb2576000600660003373ffffffffffffffffffffffffffffffffffffffff1673ffffffffffffffffffffffffffffffffffffffff1681526020019081526020016000206000878481518110610ef657610ef561230a565b5b602002602001015181526020019081526020016000206040518060800160405290816000820154815260200160018201548152602001600282015481526020016003820160009054906101000a900460ff1660ff1660ff16815250509050806000015185610f649190612368565b9450806020015184610f769190612368565b93508060600151838381518110610f9057610f8f61230a565b5b602002602001019060ff16908160ff1681525050508080600101915050610e97565b5082828296509650965050505050909192565b600080600080600080600660003373ffffffffffffffffffffffffffffffffffffffff1673ffffffffffffffffffffffffffffffffffffffff16815260200190815260200160002060008881526020019081526020016000206040518060800160405290816000820154815260200160018201548152602001600282015481526020016003820160009054906101000a900460ff1660ff1660ff168152505090508060000151816020015182604001518360600151428b10955095509550955095505091939590929450565b60007f000000000000000000000000000000000000000000000000000000000000000073ffffffffffffffffffffffffffffffffffffffff163373ffffffffffffffffffffffffffffffffffffffff1614905090565b338073ffffffffffffffffffffffffffffffffffffffff167f000000000000000000000000000000000000000000000000000000000000000073ffffffffffffffffffffffffffffffffffffffff1614611176576040517f08c379a000000000000000000000000000000000000000000000000000000000815260040161116d90612896565b60405180910390fd5b8160058460ff168154811061118e5761118d61230a565b5b90600052602060002090600891828204019190066004026101000a81548163ffffffff021916908363ffffffff160217905550505050565b336000600660008373ffffffffffffffffffffffffffffffffffffffff1673ffffffffffffffffffffffffffffffffffffffff16815260200190815260200160002090506000600760008473ffffffffffffffffffffffffffffffffffffffff1673ffffffffffffffffffffffffffffffffffffffff16815260200190815260200160002080548060200260200160405190810160405280929190818152602001828054801561129557602002820191906000526020600020905b815481526020019060010190808311611281575b5050505050905060005b81518110156113125760006112ce858484815181106112c1576112c061230a565b5b6020026020010151611b08565b9050808460008585815181106112e7576112e661230a565b5b602002602001015181526020019081526020016000206002018190555050808060010191505061129f565b5042600381905550600080600760003373ffffffffffffffffffffffffffffffffffffffff1673ffffffffffffffffffffffffffffffffffffffff1681526020019081526020016000208054806020026020016040519081016040528092919081815260200182805480156113a657602002820191906000526020600020905b815481526020019060010190808311611392575b505050505090506000600660003373ffffffffffffffffffffffffffffffffffffffff1673ffffffffffffffffffffffffffffffffffffffff168152602001908152602001600020905060005b825181101561147357428382815181106114105761140f61230a565b5b60200260200101511015611460578160008483815181106114345761143361230a565b5b6020026020010151815260200190815260200160002060020154846114599190612368565b9350611465565b611466565b5b80806001019150506113f3565b50600083116114b7576040517f08c379a00000000000000000000000000000000000000000000000000000000081526004016114ae90612902565b60405180910390fd5b60005b825181101561159557428382815181106114d7576114d661230a565b5b60200260200101511015611582578160008483815181106114fb576114fa61230a565b5b602002602001015181526020019081526020016000206002015482600085848151811061152b5761152a61230a565b5b602002602001015181526020019081526020016000206001018190555060008260008584815181106115605761155f61230a565b5b6020026020010151815260200190815260200160002060020181905550611587565b611588565b5b80806001019150506114ba565b506000600160009054906101000a900473ffffffffffffffffffffffffffffffffffffffff1673ffffffffffffffffffffffffffffffffffffffff1663a9059cbb33866040518363ffffffff1660e01b81526004016115f5929190612714565b6020604051808303816000875af1158015611614573d6000803e3d6000fd5b505050506040513d601f19601f8201168201806040525081019061163891906124b1565b90508061167a576040517f08c379a0000000000000000000000000000000000000000000000000000000008152600401611671906129ba565b60405180910390fd5b50505050505050565b6007602052816000526040600020818154811061169f57600080fd5b90600052602060002001600091509150505481565b6006602052816000526040600020602052806000526040600020600091509150508060000154908060010154908060020154908060030160009054906101000a900460ff16905084565b6060600760003373ffffffffffffffffffffffffffffffffffffffff1673ffffffffffffffffffffffffffffffffffffffff16815260200190815260200160002080548060200260200160405190810160405280929190818152602001828054801561178957602002820191906000526020600020905b815481526020019060010190808311611775575b5050505050905090565b600160009054906101000a900473ffffffffffffffffffffffffffffffffffffffff1681565b336000600660008373ffffffffffffffffffffffffffffffffffffffff1673ffffffffffffffffffffffffffffffffffffffff16815260200190815260200160002090506000600760008473ffffffffffffffffffffffffffffffffffffffff1673ffffffffffffffffffffffffffffffffffffffff16815260200190815260200160002080548060200260200160405190810160405280929190818152602001828054801561188857602002820191906000526020600020905b815481526020019060010190808311611874575b5050505050905060005b81518110156119055760006118c1858484815181106118b4576118b361230a565b5b6020026020010151611b08565b9050808460008585815181106118da576118d961230a565b5b6020026020010151815260200190815260200160002060020181905550508080600101915050611892565b504260038190555042841061194f576040517f08c379a000000000000000000000000000000000000000000000000000000000815260040161194690612a4c565b60405180910390fd5b6000600660003373ffffffffffffffffffffffffffffffffffffffff1673ffffffffffffffffffffffffffffffffffffffff168152602001908152602001600020600086815260200190815260200160002090506000816000015482600201546119b99190612368565b9050600081116119fe576040517f08c379a00000000000000000000000000000000000000000000000000000000081526004016119f590612ab8565b60405180910390fd5b60008260000181905550600082600201819055508082600101819055506000600160009054906101000a900473ffffffffffffffffffffffffffffffffffffffff1673ffffffffffffffffffffffffffffffffffffffff1663a9059cbb33846040518363ffffffff1660e01b8152600401611a7a929190612714565b6020604051808303816000875af1158015611a99573d6000803e3d6000fd5b505050506040513d601f19601f82011682018060405250810190611abd91906124b1565b905080611aff576040517f08c379a0000000000000000000000000000000000000000000000000000000008152600401611af690612b70565b60405180910390fd5b50505050505050565b600080600660008573ffffffffffffffffffffffffffffffffffffffff1673ffffffffffffffffffffffffffffffffffffffff16815260200190815260200160002060008481526020019081526020016000206040518060800160405290816000820154815260200160018201548152602001600282015481526020016003820160009054906101000a900460ff1660ff1660ff168152505090506000816000015190506000826040015190506000816201518060035442611bca9190612628565b7f000000000000000000000000000000000000000000000000000000000000000063ffffffff166005886060015160ff1681548110611c0c57611c0b61230a565b5b90600052602060002090600891828204019190066004029054906101000a900463ffffffff1663ffffffff1687611c439190612b90565b611c4d9190612c01565b611c579190612b90565b611c619190612c01565b611c6b9190612368565b90508094505050505092915050565b6040518060800160405280600081526020016000815260200160008152602001600060ff1681525090565b600080fd5b600073ffffffffffffffffffffffffffffffffffffffff82169050919050565b6000611cd582611caa565b9050919050565b611ce581611cca565b8114611cf057600080fd5b50565b600081359050611d0281611cdc565b92915050565b600060208284031215611d1e57611d1d611ca5565b5b6000611d2c84828501611cf3565b91505092915050565b6000819050919050565b611d4881611d35565b82525050565b6000602082019050611d636000830184611d3f565b92915050565b600081519050919050565b600082825260208201905092915050565b6000819050602082019050919050565b600063ffffffff82169050919050565b611dae81611d95565b82525050565b6000611dc08383611da5565b60208301905092915050565b6000602082019050919050565b6000611de482611d69565b611dee8185611d74565b9350611df983611d85565b8060005b83811015611e2a578151611e118882611db4565b9750611e1c83611dcc565b925050600181019050611dfd565b5085935050505092915050565b60006020820190508181036000830152611e518184611dd9565b905092915050565b611e6281611d35565b8114611e6d57600080fd5b50565b600081359050611e7f81611e59565b92915050565b600060ff82169050919050565b611e9b81611e85565b8114611ea657600080fd5b50565b600081359050611eb881611e92565b92915050565b60008060408385031215611ed557611ed4611ca5565b5b6000611ee385828601611e70565b9250506020611ef485828601611ea9565b9150509250929050565b600060208284031215611f1457611f13611ca5565b5b6000611f2284828501611e70565b91505092915050565b600081519050919050565b600082825260208201905092915050565b6000819050602082019050919050565b611f6081611e85565b82525050565b6000611f728383611f57565b60208301905092915050565b6000602082019050919050565b6000611f9682611f2b565b611fa08185611f36565b9350611fab83611f47565b8060005b83811015611fdc578151611fc38882611f66565b9750611fce83611f7e565b925050600181019050611faf565b5085935050505092915050565b6000606082019050611ffe6000830186611d3f565b61200b6020830185611d3f565b818103604083015261201d8184611f8b565b9050949350505050565b61203081611e85565b82525050565b60008115159050919050565b61204b81612036565b82525050565b600060a0820190506120666000830188611d3f565b6120736020830187611d3f565b6120806040830186611d3f565b61208d6060830185612027565b61209a6080830184612042565b9695505050505050565b60006020820190506120b96000830184612042565b92915050565b6120c881611d95565b81146120d357600080fd5b50565b6000813590506120e5816120bf565b92915050565b6000806040838503121561210257612101611ca5565b5b600061211085828601611ea9565b9250506020612121858286016120d6565b9150509250929050565b6000806040838503121561214257612141611ca5565b5b600061215085828601611cf3565b925050602061216185828601611e70565b9150509250929050565b60006080820190506121806000830187611d3f565b61218d6020830186611d3f565b61219a6040830185611d3f565b6121a76060830184612027565b95945050505050565b600081519050919050565b600082825260208201905092915050565b6000819050602082019050919050565b6121e581611d35565b82525050565b60006121f783836121dc565b60208301905092915050565b6000602082019050919050565b600061221b826121b0565b61222581856121bb565b9350612230836121cc565b8060005b8381101561226157815161224888826121eb565b975061225383612203565b925050600181019050612234565b5085935050505092915050565b600060208201905081810360008301526122888184612210565b905092915050565b6000819050919050565b60006122b56122b06122ab84611caa565b612290565b611caa565b9050919050565b60006122c78261229a565b9050919050565b60006122d9826122bc565b9050919050565b6122e9816122ce565b82525050565b600060208201905061230460008301846122e0565b92915050565b7f4e487b7100000000000000000000000000000000000000000000000000000000600052603260045260246000fd5b7f4e487b7100000000000000000000000000000000000000000000000000000000600052601160045260246000fd5b600061237382611d35565b915061237e83611d35565b925082820190508082111561239657612395612339565b5b92915050565b600082825260208201905092915050565b7f506c6561736520656e74657220616d6f756e742067726561746572207468616e60008201527f207a65726f2e0000000000000000000000000000000000000000000000000000602082015250565b600061240960268361239c565b9150612414826123ad565b604082019050919050565b60006020820190508181036000830152612438816123fc565b9050919050565b61244881611cca565b82525050565b6000606082019050612463600083018661243f565b612470602083018561243f565b61247d6040830184611d3f565b949350505050565b61248e81612036565b811461249957600080fd5b50565b6000815190506124ab81612485565b92915050565b6000602082840312156124c7576124c6611ca5565b5b60006124d58482850161249c565b91505092915050565b7f4572726f72206f63637572726564207768696c65207374616b696e672e28457260008201527f726f72436f64653a203030322920436f6e746163742061646d696e697374726160208201527f746f722e00000000000000000000000000000000000000000000000000000000604082015250565b600061256060448361239c565b915061256b826124de565b606082019050919050565b6000602082019050818103600083015261258f81612553565b9050919050565b7f526571756972656420616d6f756e74206973206e6f7420617661696c61626c6560008201527f20666f72207769746864726177616c2e00000000000000000000000000000000602082015250565b60006125f260308361239c565b91506125fd82612596565b604082019050919050565b60006020820190508181036000830152612621816125e5565b9050919050565b600061263382611d35565b915061263e83611d35565b925082820390508181111561265657612655612339565b5b92915050565b7f4572726f72206f63637572726564207768696c65207769746864726177696e6760008201527f2e284572726f72436f64653a203030312920436f6e746163742061646d696e6960208201527f73747261746f722e000000000000000000000000000000000000000000000000604082015250565b60006126de60488361239c565b91506126e98261265c565b606082019050919050565b6000602082019050818103600083015261270d816126d1565b9050919050565b6000604082019050612729600083018561243f565b6127366020830184611d3f565b9392505050565b7f4572726f72206f63637572726564207768696c65207769746864726177696e6760008201527f2e284572726f72436f64653a203030322920436f6e746163742061646d696e6960208201527f73747261746f722e000000000000000000000000000000000000000000000000604082015250565b60006127bf60488361239c565b91506127ca8261273d565b606082019050919050565b600060208201905081810360008301526127ee816127b2565b9050919050565b7f4e487b7100000000000000000000000000000000000000000000000000000000600052604160045260246000fd5b7f4f6e6c792041646d696e696e73747261746f72284465706c6f7965722920636160008201527f6e20646f2074686973206f7065726174696f6e2e000000000000000000000000602082015250565b600061288060348361239c565b915061288b82612824565b604082019050919050565b600060208201905081810360008301526128af81612873565b9050919050565b7f4e6f7420656e6f7567682072657761726420746f20636c61696d2e0000000000600082015250565b60006128ec601b8361239c565b91506128f7826128b6565b602082019050919050565b6000602082019050818103600083015261291b816128df565b9050919050565b7f4572726f72206f63637572726564207768696c6520636c61696d696e672e284560008201527f72726f72436f64653a203030332920436f6e746163742061646d696e6973747260208201527f61746f722e000000000000000000000000000000000000000000000000000000604082015250565b60006129a460458361239c565b91506129af82612922565b606082019050919050565b600060208201905081810360008301526129d381612997565b9050919050565b7f436c61696d20616e64207769746864726177616c206973206e6f74206176616960008201527f6c61626c6520617420746865206d6f6d656e742e000000000000000000000000602082015250565b6000612a3660348361239c565b9150612a41826129da565b604082019050919050565b60006020820190508181036000830152612a6581612a29565b9050919050565b7f4e6f7468696e6720746f207769746864726177206f7220636c61696d2e000000600082015250565b6000612aa2601d8361239c565b9150612aad82612a6c565b602082019050919050565b60006020820190508181036000830152612ad181612a95565b9050919050565b7f4572726f72206f63637572726564207768696c652077697468726177696e672060008201527f616e6420636c61696d696e672e284572726f72436f64653a203030332920436f60208201527f6e746163742061646d696e6973747261746f722e000000000000000000000000604082015250565b6000612b5a60548361239c565b9150612b6582612ad8565b606082019050919050565b60006020820190508181036000830152612b8981612b4d565b9050919050565b6000612b9b82611d35565b9150612ba683611d35565b9250828202612bb481611d35565b91508282048414831517612bcb57612bca612339565b5b5092915050565b7f4e487b7100000000000000000000000000000000000000000000000000000000600052601260045260246000fd5b6000612c0c82611d35565b9150612c1783611d35565b925082612c2757612c26612bd2565b5b82820490509291505056fea26469706673582212207a3ee546a491ba2909298a01a595e29ef05f20c5bddeed969217aacdefce7eea64736f6c63430008180033",
    "linkReferences": {},
    "deployedLinkReferences": {}
}