{
  "_format": "hh-sol-artifact-1",
  "contractName": "StakingContract",
  "sourceName": "contracts/StakingContract.sol",
  "abi": [
    {
      "inputs": [
        {
          "internalType": "address",
          "name": "stakingToken",
          "type": "address"
        }
      ],
      "stateMutability": "nonpayable",
      "type": "constructor"
    },
    {
      "inputs": [],
      "name": "NotUnlocked",
      "type": "error"
    },
    {
      "inputs": [],
      "name": "Only__Owner",
      "type": "error"
    },
    {
      "inputs": [],
      "name": "ReentrancyGuardReentrantCall",
      "type": "error"
    },
    {
      "inputs": [],
      "name": "Staking__NeedsMoreThanZero",
      "type": "error"
    },
    {
      "inputs": [],
      "name": "Staking__TransferFailed",
      "type": "error"
    },
    {
      "inputs": [],
      "name": "Withdraw__TransferFailed",
      "type": "error"
    },
    {
      "inputs": [],
      "name": "claimReward",
      "outputs": [],
      "stateMutability": "nonpayable",
      "type": "function"
    },
    {
      "inputs": [
        {
          "internalType": "address",
          "name": "account",
          "type": "address"
        }
      ],
      "name": "earned",
      "outputs": [
        {
          "internalType": "uint256",
          "name": "",
          "type": "uint256"
        }
      ],
      "stateMutability": "view",
      "type": "function"
    },
    {
      "inputs": [],
      "name": "getRewardRates",
      "outputs": [
        {
          "internalType": "uint32[]",
          "name": "",
          "type": "uint32[]"
        }
      ],
      "stateMutability": "view",
      "type": "function"
    },
    {
      "inputs": [],
      "name": "isOwner",
      "outputs": [
        {
          "internalType": "bool",
          "name": "",
          "type": "bool"
        }
      ],
      "stateMutability": "view",
      "type": "function"
    },
    {
      "inputs": [
        {
          "internalType": "uint256",
          "name": "amount",
          "type": "uint256"
        },
        {
          "internalType": "uint8",
          "name": "sType",
          "type": "uint8"
        }
      ],
      "name": "stake",
      "outputs": [],
      "stateMutability": "nonpayable",
      "type": "function"
    },
    {
      "inputs": [],
      "name": "token",
      "outputs": [
        {
          "internalType": "contract UIBT",
          "name": "",
          "type": "address"
        }
      ],
      "stateMutability": "view",
      "type": "function"
    },
    {
      "inputs": [
        {
          "internalType": "uint8",
          "name": "sType",
          "type": "uint8"
        },
        {
          "internalType": "uint32",
          "name": "rate",
          "type": "uint32"
        }
      ],
      "name": "updateRewardRate",
      "outputs": [],
      "stateMutability": "nonpayable",
      "type": "function"
    },
    {
      "inputs": [],
      "name": "userStakingStatus",
      "outputs": [
        {
          "components": [
            {
              "internalType": "uint256",
              "name": "balance",
              "type": "uint256"
            },
            {
              "internalType": "uint256",
              "name": "claimed",
              "type": "uint256"
            },
            {
              "internalType": "uint256",
              "name": "rewards",
              "type": "uint256"
            },
            {
              "internalType": "uint256",
              "name": "lockTime",
              "type": "uint256"
            },
            {
              "internalType": "uint8",
              "name": "stakingType",
              "type": "uint8"
            }
          ],
          "internalType": "struct StakingContract.UserStaking",
          "name": "",
          "type": "tuple"
        }
      ],
      "stateMutability": "view",
      "type": "function"
    },
    {
      "inputs": [
        {
          "internalType": "address",
          "name": "",
          "type": "address"
        }
      ],
      "name": "userStakings",
      "outputs": [
        {
          "internalType": "uint256",
          "name": "balance",
          "type": "uint256"
        },
        {
          "internalType": "uint256",
          "name": "claimed",
          "type": "uint256"
        },
        {
          "internalType": "uint256",
          "name": "rewards",
          "type": "uint256"
        },
        {
          "internalType": "uint256",
          "name": "lockTime",
          "type": "uint256"
        },
        {
          "internalType": "uint8",
          "name": "stakingType",
          "type": "uint8"
        }
      ],
      "stateMutability": "view",
      "type": "function"
    },
    {
      "inputs": [
        {
          "internalType": "uint256",
          "name": "amount",
          "type": "uint256"
        }
      ],
      "name": "withdraw",
      "outputs": [],
      "stateMutability": "nonpayable",
      "type": "function"
    }
  ],
  "bytecode": "0x60c06040526103e861ffff1660a09061ffff168152506040518060a001604052806213c68063ffffffff168152602001623b538063ffffffff1681526020016276a70063ffffffff168152602001629e340063ffffffff1681526020016301e1338063ffffffff1681525060049060056200007c9291906200018f565b506040518060a00160405280601b61ffff168152602001603761ffff168152602001605261ffff168152602001608961ffff16815260200161019b61ffff168152506005906005620000d0929190620001e9565b50348015620000de57600080fd5b506040516200189738038062001897833981810160405281019062000104919062000327565b600160008190555080600160006101000a81548173ffffffffffffffffffffffffffffffffffffffff021916908373ffffffffffffffffffffffffffffffffffffffff1602179055503373ffffffffffffffffffffffffffffffffffffffff1660808173ffffffffffffffffffffffffffffffffffffffff1681525050426003819055505062000359565b828054828255906000526020600020908101928215620001d6579160200282015b82811115620001d5578251829063ffffffff16905591602001919060010190620001b0565b5b509050620001e591906200029e565b5090565b828054828255906000526020600020906007016008900481019282156200028b5791602002820160005b838211156200025757835183826101000a81548163ffffffff021916908361ffff160217905550926020019260040160208160030104928301926001030262000213565b8015620002895782816101000a81549063ffffffff021916905560040160208160030104928301926001030262000257565b505b5090506200029a91906200029e565b5090565b5b80821115620002b95760008160009055506001016200029f565b5090565b600080fd5b600073ffffffffffffffffffffffffffffffffffffffff82169050919050565b6000620002ef82620002c2565b9050919050565b6200030181620002e2565b81146200030d57600080fd5b50565b6000815190506200032181620002f6565b92915050565b60006020828403121562000340576200033f620002bd565b5b6000620003508482850162000310565b91505092915050565b60805160a0516115116200038660003960006102990152600081816109c00152610a2c01526115116000f3fe608060405234801561001057600080fd5b506004361061009d5760003560e01c80638f32d59b116100665780638f32d59b14610146578063972a68d814610164578063b88a802f14610180578063de44ee671461018a578063fc0c546a146101be5761009d565b80628cc262146100a25780630c056a31146100d257806310087fb1146100f05780632e1a7d4d1461010c578063473160b414610128575b600080fd5b6100bc60048036038101906100b79190610e69565b6101dc565b6040516100c99190610eaf565b60405180910390f35b6100da610344565b6040516100e79190610f98565b60405180910390f35b61010a6004803603810190610105919061101f565b6103ce565b005b6101266004803603810190610121919061105f565b610614565b005b610130610920565b60405161013d9190611112565b60405180910390f35b61014e6109bc565b60405161015b9190611148565b60405180910390f35b61017e6004803603810190610179919061118f565b610a12565b005b610188610ae8565b005b6101a4600480360381019061019f9190610e69565b610d6b565b6040516101b59594939291906111de565b60405180910390f35b6101c6610dae565b6040516101d39190611290565b60405180910390f35b600080600660008473ffffffffffffffffffffffffffffffffffffffff1673ffffffffffffffffffffffffffffffffffffffff1681526020019081526020016000206040518060a0016040529081600082015481526020016001820154815260200160028201548152602001600382015481526020016004820160009054906101000a900460ff1660ff1660ff16815250509050600081600001519050600082604001519050600081620151806003544261029791906112da565b7f000000000000000000000000000000000000000000000000000000000000000061ffff166005886080015160ff16815481106102d7576102d661130e565b5b90600052602060002090600891828204019190066004029054906101000a900463ffffffff1663ffffffff168761030e919061133d565b61031891906113ae565b610322919061133d565b61032c91906113ae565b61033691906113df565b905080945050505050919050565b6060600060058054806020026020016040519081016040528092919081815260200182805480156103c057602002820191906000526020600020906000905b82829054906101000a900463ffffffff1663ffffffff16815260200190600401906020826003010492830192600103820291508084116103835790505b505050505090508091505090565b336000600660008373ffffffffffffffffffffffffffffffffffffffff1673ffffffffffffffffffffffffffffffffffffffff168152602001908152602001600020905061041b826101dc565b8160020181905550426003819055508360008103610465576040517f9b677fa000000000000000000000000000000000000000000000000000000000815260040160405180910390fd5b6000600660003373ffffffffffffffffffffffffffffffffffffffff1673ffffffffffffffffffffffffffffffffffffffff1681526020019081526020016000209050858160000160008282546104bc91906113df565b9250508190555060048560ff16815481106104da576104d961130e565b5b9060005260206000200154426104f091906113df565b8160030181905550848160040160006101000a81548160ff021916908360ff160217905550856002600082825461052791906113df565b925050819055506000600160009054906101000a900473ffffffffffffffffffffffffffffffffffffffff1673ffffffffffffffffffffffffffffffffffffffff166323b872dd33308a6040518463ffffffff1660e01b815260040161058f93929190611422565b6020604051808303816000875af11580156105ae573d6000803e3d6000fd5b505050506040513d601f19601f820116820180604052508101906105d29190611485565b90508061060b576040517feb4c684700000000000000000000000000000000000000000000000000000000815260040160405180910390fd5b50505050505050565b336000600660008373ffffffffffffffffffffffffffffffffffffffff1673ffffffffffffffffffffffffffffffffffffffff1681526020019081526020016000206040518060a0016040529081600082015481526020016001820154815260200160028201548152602001600382015481526020016004820160009054906101000a900460ff1660ff1660ff1681525050905042816060015111156106e6576040517ffa68006500000000000000000000000000000000000000000000000000000000815260040160405180910390fd5b336000600660008373ffffffffffffffffffffffffffffffffffffffff1673ffffffffffffffffffffffffffffffffffffffff1681526020019081526020016000209050610733826101dc565b816002018190555042600381905550846000810361077d576040517f9b677fa000000000000000000000000000000000000000000000000000000000815260040160405180910390fd5b6000600660003373ffffffffffffffffffffffffffffffffffffffff1673ffffffffffffffffffffffffffffffffffffffff1681526020019081526020016000209050868160000160008282546107d491906112da565b9250508190555086600260008282546107ed91906112da565b925050819055508681600001540361083b5780600201548761080f91906113df565b9650806002015481600101600082825461082991906113df565b92505081905550600081600201819055505b6000600160009054906101000a900473ffffffffffffffffffffffffffffffffffffffff1673ffffffffffffffffffffffffffffffffffffffff1663a9059cbb338a6040518363ffffffff1660e01b815260040161089a9291906114b2565b6020604051808303816000875af11580156108b9573d6000803e3d6000fd5b505050506040513d601f19601f820116820180604052508101906108dd9190611485565b905080610916576040517f8ecca7d100000000000000000000000000000000000000000000000000000000815260040160405180910390fd5b5050505050505050565b610928610dd4565b600660003373ffffffffffffffffffffffffffffffffffffffff1673ffffffffffffffffffffffffffffffffffffffff1681526020019081526020016000206040518060a0016040529081600082015481526020016001820154815260200160028201548152602001600382015481526020016004820160009054906101000a900460ff1660ff1660ff1681525050905090565b60007f000000000000000000000000000000000000000000000000000000000000000073ffffffffffffffffffffffffffffffffffffffff163373ffffffffffffffffffffffffffffffffffffffff1614905090565b338073ffffffffffffffffffffffffffffffffffffffff167f000000000000000000000000000000000000000000000000000000000000000073ffffffffffffffffffffffffffffffffffffffff1614610a98576040517fc466007c00000000000000000000000000000000000000000000000000000000815260040160405180910390fd5b8160058460ff1681548110610ab057610aaf61130e565b5b90600052602060002090600891828204019190066004026101000a81548163ffffffff021916908363ffffffff160217905550505050565b336000600660008373ffffffffffffffffffffffffffffffffffffffff1673ffffffffffffffffffffffffffffffffffffffff1681526020019081526020016000206040518060a0016040529081600082015481526020016001820154815260200160028201548152602001600382015481526020016004820160009054906101000a900460ff1660ff1660ff168152505090504281606001511115610bba576040517ffa68006500000000000000000000000000000000000000000000000000000000815260040160405180910390fd5b336000600660008373ffffffffffffffffffffffffffffffffffffffff1673ffffffffffffffffffffffffffffffffffffffff1681526020019081526020016000209050610c07826101dc565b8160020181905550426003819055506000600660003373ffffffffffffffffffffffffffffffffffffffff1673ffffffffffffffffffffffffffffffffffffffff168152602001908152602001600020905060008160020154905080826001016000828254610c7691906113df565b92505081905550600082600201819055506000600160009054906101000a900473ffffffffffffffffffffffffffffffffffffffff1673ffffffffffffffffffffffffffffffffffffffff1663a9059cbb33846040518363ffffffff1660e01b8152600401610ce69291906114b2565b6020604051808303816000875af1158015610d05573d6000803e3d6000fd5b505050506040513d601f19601f82011682018060405250810190610d299190611485565b905080610d62576040517feb4c684700000000000000000000000000000000000000000000000000000000815260040160405180910390fd5b50505050505050565b60066020528060005260406000206000915090508060000154908060010154908060020154908060030154908060040160009054906101000a900460ff16905085565b600160009054906101000a900473ffffffffffffffffffffffffffffffffffffffff1681565b6040518060a0016040528060008152602001600081526020016000815260200160008152602001600060ff1681525090565b600080fd5b600073ffffffffffffffffffffffffffffffffffffffff82169050919050565b6000610e3682610e0b565b9050919050565b610e4681610e2b565b8114610e5157600080fd5b50565b600081359050610e6381610e3d565b92915050565b600060208284031215610e7f57610e7e610e06565b5b6000610e8d84828501610e54565b91505092915050565b6000819050919050565b610ea981610e96565b82525050565b6000602082019050610ec46000830184610ea0565b92915050565b600081519050919050565b600082825260208201905092915050565b6000819050602082019050919050565b600063ffffffff82169050919050565b610f0f81610ef6565b82525050565b6000610f218383610f06565b60208301905092915050565b6000602082019050919050565b6000610f4582610eca565b610f4f8185610ed5565b9350610f5a83610ee6565b8060005b83811015610f8b578151610f728882610f15565b9750610f7d83610f2d565b925050600181019050610f5e565b5085935050505092915050565b60006020820190508181036000830152610fb28184610f3a565b905092915050565b610fc381610e96565b8114610fce57600080fd5b50565b600081359050610fe081610fba565b92915050565b600060ff82169050919050565b610ffc81610fe6565b811461100757600080fd5b50565b60008135905061101981610ff3565b92915050565b6000806040838503121561103657611035610e06565b5b600061104485828601610fd1565b92505060206110558582860161100a565b9150509250929050565b60006020828403121561107557611074610e06565b5b600061108384828501610fd1565b91505092915050565b61109581610e96565b82525050565b6110a481610fe6565b82525050565b60a0820160008201516110c0600085018261108c565b5060208201516110d3602085018261108c565b5060408201516110e6604085018261108c565b5060608201516110f9606085018261108c565b50608082015161110c608085018261109b565b50505050565b600060a08201905061112760008301846110aa565b92915050565b60008115159050919050565b6111428161112d565b82525050565b600060208201905061115d6000830184611139565b92915050565b61116c81610ef6565b811461117757600080fd5b50565b60008135905061118981611163565b92915050565b600080604083850312156111a6576111a5610e06565b5b60006111b48582860161100a565b92505060206111c58582860161117a565b9150509250929050565b6111d881610fe6565b82525050565b600060a0820190506111f36000830188610ea0565b6112006020830187610ea0565b61120d6040830186610ea0565b61121a6060830185610ea0565b61122760808301846111cf565b9695505050505050565b6000819050919050565b600061125661125161124c84610e0b565b611231565b610e0b565b9050919050565b60006112688261123b565b9050919050565b600061127a8261125d565b9050919050565b61128a8161126f565b82525050565b60006020820190506112a56000830184611281565b92915050565b7f4e487b7100000000000000000000000000000000000000000000000000000000600052601160045260246000fd5b60006112e582610e96565b91506112f083610e96565b9250828203905081811115611308576113076112ab565b5b92915050565b7f4e487b7100000000000000000000000000000000000000000000000000000000600052603260045260246000fd5b600061134882610e96565b915061135383610e96565b925082820261136181610e96565b91508282048414831517611378576113776112ab565b5b5092915050565b7f4e487b7100000000000000000000000000000000000000000000000000000000600052601260045260246000fd5b60006113b982610e96565b91506113c483610e96565b9250826113d4576113d361137f565b5b828204905092915050565b60006113ea82610e96565b91506113f583610e96565b925082820190508082111561140d5761140c6112ab565b5b92915050565b61141c81610e2b565b82525050565b60006060820190506114376000830186611413565b6114446020830185611413565b6114516040830184610ea0565b949350505050565b6114628161112d565b811461146d57600080fd5b50565b60008151905061147f81611459565b92915050565b60006020828403121561149b5761149a610e06565b5b60006114a984828501611470565b91505092915050565b60006040820190506114c76000830185611413565b6114d46020830184610ea0565b939250505056fea2646970667358221220d487207b09ef5ad863223b4a3c1d6e52d778f384232df9edcbb35ff3e373037164736f6c63430008180033",
  "linkReferences": {},
  "deployedLinkReferences": {}
}