{
  "_format": "hh-sol-artifact-1",
  "contractName": "StakingContract",
  "sourceName": "contracts/StakingContract.sol",
  "abi": [
    {
      "inputs": [
        {
          "internalType": "address",
          "name": "stakingToken",
          "type": "address"
        },
        {
          "internalType": "uint32",
          "name": "apr",
          "type": "uint32"
        }
      ],
      "stateMutability": "nonpayable",
      "type": "constructor"
    },
    {
      "inputs": [],
      "name": "Only__Owner",
      "type": "error"
    },
    {
      "inputs": [],
      "name": "ReentrancyGuardReentrantCall",
      "type": "error"
    },
    {
      "inputs": [],
      "name": "Staking__NeedsMoreThanZero",
      "type": "error"
    },
    {
      "inputs": [],
      "name": "Staking__TransferFailed",
      "type": "error"
    },
    {
      "inputs": [],
      "name": "Withdraw__TransferFailed",
      "type": "error"
    },
    {
      "inputs": [],
      "name": "APR",
      "outputs": [
        {
          "internalType": "uint32",
          "name": "",
          "type": "uint32"
        }
      ],
      "stateMutability": "view",
      "type": "function"
    },
    {
      "inputs": [],
      "name": "claimReward",
      "outputs": [],
      "stateMutability": "nonpayable",
      "type": "function"
    },
    {
      "inputs": [],
      "name": "deployer",
      "outputs": [
        {
          "internalType": "address",
          "name": "",
          "type": "address"
        }
      ],
      "stateMutability": "view",
      "type": "function"
    },
    {
      "inputs": [
        {
          "internalType": "address",
          "name": "account",
          "type": "address"
        }
      ],
      "name": "earned",
      "outputs": [
        {
          "internalType": "uint256",
          "name": "",
          "type": "uint256"
        }
      ],
      "stateMutability": "view",
      "type": "function"
    },
    {
      "inputs": [],
      "name": "getAPR",
      "outputs": [
        {
          "internalType": "uint256",
          "name": "",
          "type": "uint256"
        }
      ],
      "stateMutability": "view",
      "type": "function"
    },
    {
      "inputs": [
        {
          "internalType": "address",
          "name": "account",
          "type": "address"
        }
      ],
      "name": "getClaimed",
      "outputs": [
        {
          "internalType": "uint256",
          "name": "",
          "type": "uint256"
        }
      ],
      "stateMutability": "view",
      "type": "function"
    },
    {
      "inputs": [
        {
          "internalType": "address",
          "name": "account",
          "type": "address"
        }
      ],
      "name": "getStaked",
      "outputs": [
        {
          "internalType": "uint256",
          "name": "",
          "type": "uint256"
        }
      ],
      "stateMutability": "view",
      "type": "function"
    },
    {
      "inputs": [],
      "name": "isOwner",
      "outputs": [
        {
          "internalType": "bool",
          "name": "",
          "type": "bool"
        }
      ],
      "stateMutability": "view",
      "type": "function"
    },
    {
      "inputs": [
        {
          "internalType": "address",
          "name": "",
          "type": "address"
        }
      ],
      "name": "s_balances",
      "outputs": [
        {
          "internalType": "uint256",
          "name": "",
          "type": "uint256"
        }
      ],
      "stateMutability": "view",
      "type": "function"
    },
    {
      "inputs": [
        {
          "internalType": "address",
          "name": "",
          "type": "address"
        }
      ],
      "name": "s_claimed",
      "outputs": [
        {
          "internalType": "uint256",
          "name": "",
          "type": "uint256"
        }
      ],
      "stateMutability": "view",
      "type": "function"
    },
    {
      "inputs": [],
      "name": "s_lastUpdateTime",
      "outputs": [
        {
          "internalType": "uint256",
          "name": "",
          "type": "uint256"
        }
      ],
      "stateMutability": "view",
      "type": "function"
    },
    {
      "inputs": [
        {
          "internalType": "address",
          "name": "",
          "type": "address"
        }
      ],
      "name": "s_rewards",
      "outputs": [
        {
          "internalType": "uint256",
          "name": "",
          "type": "uint256"
        }
      ],
      "stateMutability": "view",
      "type": "function"
    },
    {
      "inputs": [],
      "name": "s_stakingToken",
      "outputs": [
        {
          "internalType": "contract UIBT",
          "name": "",
          "type": "address"
        }
      ],
      "stateMutability": "view",
      "type": "function"
    },
    {
      "inputs": [],
      "name": "s_totalSupply",
      "outputs": [
        {
          "internalType": "uint256",
          "name": "",
          "type": "uint256"
        }
      ],
      "stateMutability": "view",
      "type": "function"
    },
    {
      "inputs": [
        {
          "internalType": "uint8",
          "name": "_apr",
          "type": "uint8"
        }
      ],
      "name": "setAPR",
      "outputs": [],
      "stateMutability": "nonpayable",
      "type": "function"
    },
    {
      "inputs": [
        {
          "internalType": "uint256",
          "name": "amount",
          "type": "uint256"
        }
      ],
      "name": "stake",
      "outputs": [],
      "stateMutability": "nonpayable",
      "type": "function"
    },
    {
      "inputs": [
        {
          "internalType": "uint256",
          "name": "amount",
          "type": "uint256"
        }
      ],
      "name": "withdraw",
      "outputs": [],
      "stateMutability": "nonpayable",
      "type": "function"
    }
  ],
  "bytecode": "0x60806040523480156200001157600080fd5b506040516200134d3803806200134d83398181016040528101906200003791906200019c565b600160008190555081600160006101000a81548173ffffffffffffffffffffffffffffffffffffffff021916908373ffffffffffffffffffffffffffffffffffffffff16021790555033600460006101000a81548173ffffffffffffffffffffffffffffffffffffffff021916908373ffffffffffffffffffffffffffffffffffffffff16021790555080600460146101000a81548163ffffffff021916908363ffffffff160217905550426003819055505050620001e3565b600080fd5b600073ffffffffffffffffffffffffffffffffffffffff82169050919050565b60006200012382620000f6565b9050919050565b620001358162000116565b81146200014157600080fd5b50565b60008151905062000155816200012a565b92915050565b600063ffffffff82169050919050565b62000176816200015b565b81146200018257600080fd5b50565b60008151905062000196816200016b565b92915050565b60008060408385031215620001b657620001b5620000f1565b5b6000620001c68582860162000144565b9250506020620001d98582860162000185565b9150509250929050565b61115a80620001f36000396000f3fe608060405234801561001057600080fd5b506004361061010a5760003560e01c8063ab32eb69116100a2578063bd8d99f411610071578063bd8d99f4146102a7578063bea08151146102c3578063c89d5b8b146102f3578063d5f3948814610311578063eb46260e1461032f5761010a565b8063ab32eb6914610231578063adca9b7214610261578063b88a802f1461027f578063bd30558e146102895761010a565b80636aa0838f116100de5780636aa0838f146101a957806374b3c7ec146101c75780638f32d59b146101f7578063a694fc3a146102155761010a565b80628cc2621461010f5780632e1a7d4d1461013f578063399080ec1461015b5780636a74a0fc1461018b575b600080fd5b61012960048036038101906101249190610cfe565b61035f565b6040516101369190610d44565b60405180910390f35b61015960048036038101906101549190610d8b565b61045a565b005b61017560048036038101906101709190610cfe565b610639565b6040516101829190610d44565b60405180910390f35b610193610682565b6040516101a09190610d44565b60405180910390f35b6101b1610688565b6040516101be9190610d44565b60405180910390f35b6101e160048036038101906101dc9190610cfe565b61068e565b6040516101ee9190610d44565b60405180910390f35b6101ff6106a6565b60405161020c9190610dd3565b60405180910390f35b61022f600480360381019061022a9190610d8b565b6106fe565b005b61024b60048036038101906102469190610cfe565b6108df565b6040516102589190610d44565b60405180910390f35b6102696108f7565b6040516102769190610e4d565b60405180910390f35b61028761091d565b005b610291610b30565b60405161029e9190610e87565b60405180910390f35b6102c160048036038101906102bc9190610edb565b610b46565b005b6102dd60048036038101906102d89190610cfe565b610bf4565b6040516102ea9190610d44565b60405180910390f35b6102fb610c0c565b6040516103089190610d44565b60405180910390f35b610319610c2c565b6040516103269190610f17565b60405180910390f35b61034960048036038101906103449190610cfe565b610c52565b6040516103569190610d44565b60405180910390f35b600080600560008473ffffffffffffffffffffffffffffffffffffffff1673ffffffffffffffffffffffffffffffffffffffff1681526020019081526020016000205490506000600760008573ffffffffffffffffffffffffffffffffffffffff1673ffffffffffffffffffffffffffffffffffffffff1681526020019081526020016000205490506000816301e13380600354426103fe9190610f61565b612710600460149054906101000a900463ffffffff1663ffffffff16876104259190610f95565b61042f9190611006565b6104399190610f95565b6104439190611006565b61044d9190611037565b9050809350505050919050565b336104648161035f565b600760008373ffffffffffffffffffffffffffffffffffffffff1673ffffffffffffffffffffffffffffffffffffffff168152602001908152602001600020819055504260038190555081600081036104e9576040517f9b677fa000000000000000000000000000000000000000000000000000000000815260040160405180910390fd5b82600560003373ffffffffffffffffffffffffffffffffffffffff1673ffffffffffffffffffffffffffffffffffffffff16815260200190815260200160002060008282546105389190610f61565b9250508190555082600260008282546105519190610f61565b925050819055506000600160009054906101000a900473ffffffffffffffffffffffffffffffffffffffff1673ffffffffffffffffffffffffffffffffffffffff1663a9059cbb33866040518363ffffffff1660e01b81526004016105b792919061106b565b6020604051808303816000875af11580156105d6573d6000803e3d6000fd5b505050506040513d601f19601f820116820180604052508101906105fa91906110c0565b905080610633576040517f8ecca7d100000000000000000000000000000000000000000000000000000000815260040160405180910390fd5b50505050565b6000600560008373ffffffffffffffffffffffffffffffffffffffff1673ffffffffffffffffffffffffffffffffffffffff168152602001908152602001600020549050919050565b60025481565b60035481565b60066020528060005260406000206000915090505481565b6000600460009054906101000a900473ffffffffffffffffffffffffffffffffffffffff1673ffffffffffffffffffffffffffffffffffffffff163373ffffffffffffffffffffffffffffffffffffffff1614905090565b336107088161035f565b600760008373ffffffffffffffffffffffffffffffffffffffff1673ffffffffffffffffffffffffffffffffffffffff1681526020019081526020016000208190555042600381905550816000810361078d576040517f9b677fa000000000000000000000000000000000000000000000000000000000815260040160405180910390fd5b82600560003373ffffffffffffffffffffffffffffffffffffffff1673ffffffffffffffffffffffffffffffffffffffff16815260200190815260200160002060008282546107dc9190611037565b9250508190555082600260008282546107f59190611037565b925050819055506000600160009054906101000a900473ffffffffffffffffffffffffffffffffffffffff1673ffffffffffffffffffffffffffffffffffffffff166323b872dd3330876040518463ffffffff1660e01b815260040161085d939291906110ed565b6020604051808303816000875af115801561087c573d6000803e3d6000fd5b505050506040513d601f19601f820116820180604052508101906108a091906110c0565b9050806108d9576040517feb4c684700000000000000000000000000000000000000000000000000000000815260040160405180910390fd5b50505050565b60056020528060005260406000206000915090505481565b600160009054906101000a900473ffffffffffffffffffffffffffffffffffffffff1681565b336109278161035f565b600760008373ffffffffffffffffffffffffffffffffffffffff1673ffffffffffffffffffffffffffffffffffffffff16815260200190815260200160002081905550426003819055506000600760003373ffffffffffffffffffffffffffffffffffffffff1673ffffffffffffffffffffffffffffffffffffffff1681526020019081526020016000205490506000600160009054906101000a900473ffffffffffffffffffffffffffffffffffffffff1673ffffffffffffffffffffffffffffffffffffffff1663a9059cbb33846040518363ffffffff1660e01b8152600401610a1492919061106b565b6020604051808303816000875af1158015610a33573d6000803e3d6000fd5b505050506040513d601f19601f82011682018060405250810190610a5791906110c0565b905080610a90576040517feb4c684700000000000000000000000000000000000000000000000000000000815260040160405180910390fd5b81600660003373ffffffffffffffffffffffffffffffffffffffff1673ffffffffffffffffffffffffffffffffffffffff1681526020019081526020016000206000828254610adf9190611037565b925050819055506000600760003373ffffffffffffffffffffffffffffffffffffffff1673ffffffffffffffffffffffffffffffffffffffff16815260200190815260200160002081905550505050565b600460149054906101000a900463ffffffff1681565b3373ffffffffffffffffffffffffffffffffffffffff16600460009054906101000a900473ffffffffffffffffffffffffffffffffffffffff1673ffffffffffffffffffffffffffffffffffffffff1614610bcd576040517fc466007c00000000000000000000000000000000000000000000000000000000815260040160405180910390fd5b8060ff16600460146101000a81548163ffffffff021916908363ffffffff16021790555050565b60076020528060005260406000206000915090505481565b6000600460149054906101000a900463ffffffff1663ffffffff16905090565b600460009054906101000a900473ffffffffffffffffffffffffffffffffffffffff1681565b6000600660008373ffffffffffffffffffffffffffffffffffffffff1673ffffffffffffffffffffffffffffffffffffffff168152602001908152602001600020549050919050565b600080fd5b600073ffffffffffffffffffffffffffffffffffffffff82169050919050565b6000610ccb82610ca0565b9050919050565b610cdb81610cc0565b8114610ce657600080fd5b50565b600081359050610cf881610cd2565b92915050565b600060208284031215610d1457610d13610c9b565b5b6000610d2284828501610ce9565b91505092915050565b6000819050919050565b610d3e81610d2b565b82525050565b6000602082019050610d596000830184610d35565b92915050565b610d6881610d2b565b8114610d7357600080fd5b50565b600081359050610d8581610d5f565b92915050565b600060208284031215610da157610da0610c9b565b5b6000610daf84828501610d76565b91505092915050565b60008115159050919050565b610dcd81610db8565b82525050565b6000602082019050610de86000830184610dc4565b92915050565b6000819050919050565b6000610e13610e0e610e0984610ca0565b610dee565b610ca0565b9050919050565b6000610e2582610df8565b9050919050565b6000610e3782610e1a565b9050919050565b610e4781610e2c565b82525050565b6000602082019050610e626000830184610e3e565b92915050565b600063ffffffff82169050919050565b610e8181610e68565b82525050565b6000602082019050610e9c6000830184610e78565b92915050565b600060ff82169050919050565b610eb881610ea2565b8114610ec357600080fd5b50565b600081359050610ed581610eaf565b92915050565b600060208284031215610ef157610ef0610c9b565b5b6000610eff84828501610ec6565b91505092915050565b610f1181610cc0565b82525050565b6000602082019050610f2c6000830184610f08565b92915050565b7f4e487b7100000000000000000000000000000000000000000000000000000000600052601160045260246000fd5b6000610f6c82610d2b565b9150610f7783610d2b565b9250828203905081811115610f8f57610f8e610f32565b5b92915050565b6000610fa082610d2b565b9150610fab83610d2b565b9250828202610fb981610d2b565b91508282048414831517610fd057610fcf610f32565b5b5092915050565b7f4e487b7100000000000000000000000000000000000000000000000000000000600052601260045260246000fd5b600061101182610d2b565b915061101c83610d2b565b92508261102c5761102b610fd7565b5b828204905092915050565b600061104282610d2b565b915061104d83610d2b565b925082820190508082111561106557611064610f32565b5b92915050565b60006040820190506110806000830185610f08565b61108d6020830184610d35565b9392505050565b61109d81610db8565b81146110a857600080fd5b50565b6000815190506110ba81611094565b92915050565b6000602082840312156110d6576110d5610c9b565b5b60006110e4848285016110ab565b91505092915050565b60006060820190506111026000830186610f08565b61110f6020830185610f08565b61111c6040830184610d35565b94935050505056fea26469706673582212207ad11bc761f6e283d08c3da7506a56711da2ce38be4e85c6c386ea0cdb829a3864736f6c63430008180033",
  "linkReferences": {},
  "deployedLinkReferences": {}
}