{
  "_format": "hh-sol-artifact-1",
  "contractName": "StakingContract",
  "sourceName": "contracts/StakingContract.sol",
  "abi": [
    {
      "inputs": [
        {
          "internalType": "address",
          "name": "stakingToken",
          "type": "address"
        },
        {
          "internalType": "uint8",
          "name": "apr",
          "type": "uint8"
        }
      ],
      "stateMutability": "nonpayable",
      "type": "constructor"
    },
    {
      "inputs": [],
      "name": "Only__Owner",
      "type": "error"
    },
    {
      "inputs": [],
      "name": "ReentrancyGuardReentrantCall",
      "type": "error"
    },
    {
      "inputs": [],
      "name": "Staking__NeedsMoreThanZero",
      "type": "error"
    },
    {
      "inputs": [],
      "name": "Staking__TransferFailed",
      "type": "error"
    },
    {
      "inputs": [],
      "name": "Withdraw__TransferFailed",
      "type": "error"
    },
    {
      "inputs": [],
      "name": "APR",
      "outputs": [
        {
          "internalType": "uint8",
          "name": "",
          "type": "uint8"
        }
      ],
      "stateMutability": "view",
      "type": "function"
    },
    {
      "inputs": [],
      "name": "claimReward",
      "outputs": [],
      "stateMutability": "nonpayable",
      "type": "function"
    },
    {
      "inputs": [],
      "name": "deployer",
      "outputs": [
        {
          "internalType": "address",
          "name": "",
          "type": "address"
        }
      ],
      "stateMutability": "view",
      "type": "function"
    },
    {
      "inputs": [
        {
          "internalType": "address",
          "name": "account",
          "type": "address"
        }
      ],
      "name": "earned",
      "outputs": [
        {
          "internalType": "uint256",
          "name": "",
          "type": "uint256"
        }
      ],
      "stateMutability": "view",
      "type": "function"
    },
    {
      "inputs": [],
      "name": "getAPR",
      "outputs": [
        {
          "internalType": "uint256",
          "name": "",
          "type": "uint256"
        }
      ],
      "stateMutability": "view",
      "type": "function"
    },
    {
      "inputs": [
        {
          "internalType": "address",
          "name": "account",
          "type": "address"
        }
      ],
      "name": "getClaimed",
      "outputs": [
        {
          "internalType": "uint256",
          "name": "",
          "type": "uint256"
        }
      ],
      "stateMutability": "view",
      "type": "function"
    },
    {
      "inputs": [
        {
          "internalType": "address",
          "name": "account",
          "type": "address"
        }
      ],
      "name": "getStaked",
      "outputs": [
        {
          "internalType": "uint256",
          "name": "",
          "type": "uint256"
        }
      ],
      "stateMutability": "view",
      "type": "function"
    },
    {
      "inputs": [],
      "name": "isOwner",
      "outputs": [
        {
          "internalType": "bool",
          "name": "",
          "type": "bool"
        }
      ],
      "stateMutability": "view",
      "type": "function"
    },
    {
      "inputs": [
        {
          "internalType": "address",
          "name": "",
          "type": "address"
        }
      ],
      "name": "s_balances",
      "outputs": [
        {
          "internalType": "uint256",
          "name": "",
          "type": "uint256"
        }
      ],
      "stateMutability": "view",
      "type": "function"
    },
    {
      "inputs": [
        {
          "internalType": "address",
          "name": "",
          "type": "address"
        }
      ],
      "name": "s_claimed",
      "outputs": [
        {
          "internalType": "uint256",
          "name": "",
          "type": "uint256"
        }
      ],
      "stateMutability": "view",
      "type": "function"
    },
    {
      "inputs": [],
      "name": "s_lastUpdateTime",
      "outputs": [
        {
          "internalType": "uint256",
          "name": "",
          "type": "uint256"
        }
      ],
      "stateMutability": "view",
      "type": "function"
    },
    {
      "inputs": [
        {
          "internalType": "address",
          "name": "",
          "type": "address"
        }
      ],
      "name": "s_rewards",
      "outputs": [
        {
          "internalType": "uint256",
          "name": "",
          "type": "uint256"
        }
      ],
      "stateMutability": "view",
      "type": "function"
    },
    {
      "inputs": [],
      "name": "s_stakingToken",
      "outputs": [
        {
          "internalType": "contract UIBT",
          "name": "",
          "type": "address"
        }
      ],
      "stateMutability": "view",
      "type": "function"
    },
    {
      "inputs": [],
      "name": "s_totalSupply",
      "outputs": [
        {
          "internalType": "uint256",
          "name": "",
          "type": "uint256"
        }
      ],
      "stateMutability": "view",
      "type": "function"
    },
    {
      "inputs": [
        {
          "internalType": "uint8",
          "name": "_apr",
          "type": "uint8"
        }
      ],
      "name": "setAPR",
      "outputs": [],
      "stateMutability": "nonpayable",
      "type": "function"
    },
    {
      "inputs": [
        {
          "internalType": "uint256",
          "name": "amount",
          "type": "uint256"
        }
      ],
      "name": "stake",
      "outputs": [],
      "stateMutability": "nonpayable",
      "type": "function"
    },
    {
      "inputs": [
        {
          "internalType": "uint256",
          "name": "amount",
          "type": "uint256"
        }
      ],
      "name": "withdraw",
      "outputs": [],
      "stateMutability": "nonpayable",
      "type": "function"
    }
  ],
  "bytecode": "0x60806040523480156200001157600080fd5b506040516200131c3803806200131c833981810160405281019062000037919062000193565b600160008190555081600160006101000a81548173ffffffffffffffffffffffffffffffffffffffff021916908373ffffffffffffffffffffffffffffffffffffffff16021790555033600460006101000a81548173ffffffffffffffffffffffffffffffffffffffff021916908373ffffffffffffffffffffffffffffffffffffffff16021790555080600460146101000a81548160ff021916908360ff160217905550426003819055505050620001da565b600080fd5b600073ffffffffffffffffffffffffffffffffffffffff82169050919050565b60006200011d82620000f0565b9050919050565b6200012f8162000110565b81146200013b57600080fd5b50565b6000815190506200014f8162000124565b92915050565b600060ff82169050919050565b6200016d8162000155565b81146200017957600080fd5b50565b6000815190506200018d8162000162565b92915050565b60008060408385031215620001ad57620001ac620000eb565b5b6000620001bd858286016200013e565b9250506020620001d0858286016200017c565b9150509250929050565b61113280620001ea6000396000f3fe608060405234801561001057600080fd5b506004361061010a5760003560e01c8063ab32eb69116100a2578063bd8d99f411610071578063bd8d99f4146102a7578063bea08151146102c3578063c89d5b8b146102f3578063d5f3948814610311578063eb46260e1461032f5761010a565b8063ab32eb6914610231578063adca9b7214610261578063b88a802f1461027f578063bd30558e146102895761010a565b80636aa0838f116100de5780636aa0838f146101a957806374b3c7ec146101c75780638f32d59b146101f7578063a694fc3a146102155761010a565b80628cc2621461010f5780632e1a7d4d1461013f578063399080ec1461015b5780636a74a0fc1461018b575b600080fd5b61012960048036038101906101249190610ce6565b61035f565b6040516101369190610d2c565b60405180910390f35b61015960048036038101906101549190610d73565b610454565b005b61017560048036038101906101709190610ce6565b610633565b6040516101829190610d2c565b60405180910390f35b61019361067c565b6040516101a09190610d2c565b60405180910390f35b6101b1610682565b6040516101be9190610d2c565b60405180910390f35b6101e160048036038101906101dc9190610ce6565b610688565b6040516101ee9190610d2c565b60405180910390f35b6101ff6106a0565b60405161020c9190610dbb565b60405180910390f35b61022f600480360381019061022a9190610d73565b6106f8565b005b61024b60048036038101906102469190610ce6565b6108d9565b6040516102589190610d2c565b60405180910390f35b6102696108f1565b6040516102769190610e35565b60405180910390f35b610287610917565b005b610291610b2a565b60405161029e9190610e6c565b60405180910390f35b6102c160048036038101906102bc9190610eb3565b610b3d565b005b6102dd60048036038101906102d89190610ce6565b610be2565b6040516102ea9190610d2c565b60405180910390f35b6102fb610bfa565b6040516103089190610d2c565b60405180910390f35b610319610c14565b6040516103269190610eef565b60405180910390f35b61034960048036038101906103449190610ce6565b610c3a565b6040516103569190610d2c565b60405180910390f35b600080600560008473ffffffffffffffffffffffffffffffffffffffff1673ffffffffffffffffffffffffffffffffffffffff1681526020019081526020016000205490506000600760008573ffffffffffffffffffffffffffffffffffffffff1673ffffffffffffffffffffffffffffffffffffffff1681526020019081526020016000205490506000816301e13380600354426103fe9190610f39565b612710600460149054906101000a900460ff1660ff168761041f9190610f6d565b6104299190610fde565b6104339190610f6d565b61043d9190610fde565b610447919061100f565b9050809350505050919050565b3361045e8161035f565b600760008373ffffffffffffffffffffffffffffffffffffffff1673ffffffffffffffffffffffffffffffffffffffff168152602001908152602001600020819055504260038190555081600081036104e3576040517f9b677fa000000000000000000000000000000000000000000000000000000000815260040160405180910390fd5b82600560003373ffffffffffffffffffffffffffffffffffffffff1673ffffffffffffffffffffffffffffffffffffffff16815260200190815260200160002060008282546105329190610f39565b92505081905550826002600082825461054b9190610f39565b925050819055506000600160009054906101000a900473ffffffffffffffffffffffffffffffffffffffff1673ffffffffffffffffffffffffffffffffffffffff1663a9059cbb33866040518363ffffffff1660e01b81526004016105b1929190611043565b6020604051808303816000875af11580156105d0573d6000803e3d6000fd5b505050506040513d601f19601f820116820180604052508101906105f49190611098565b90508061062d576040517f8ecca7d100000000000000000000000000000000000000000000000000000000815260040160405180910390fd5b50505050565b6000600560008373ffffffffffffffffffffffffffffffffffffffff1673ffffffffffffffffffffffffffffffffffffffff168152602001908152602001600020549050919050565b60025481565b60035481565b60066020528060005260406000206000915090505481565b6000600460009054906101000a900473ffffffffffffffffffffffffffffffffffffffff1673ffffffffffffffffffffffffffffffffffffffff163373ffffffffffffffffffffffffffffffffffffffff1614905090565b336107028161035f565b600760008373ffffffffffffffffffffffffffffffffffffffff1673ffffffffffffffffffffffffffffffffffffffff16815260200190815260200160002081905550426003819055508160008103610787576040517f9b677fa000000000000000000000000000000000000000000000000000000000815260040160405180910390fd5b82600560003373ffffffffffffffffffffffffffffffffffffffff1673ffffffffffffffffffffffffffffffffffffffff16815260200190815260200160002060008282546107d6919061100f565b9250508190555082600260008282546107ef919061100f565b925050819055506000600160009054906101000a900473ffffffffffffffffffffffffffffffffffffffff1673ffffffffffffffffffffffffffffffffffffffff166323b872dd3330876040518463ffffffff1660e01b8152600401610857939291906110c5565b6020604051808303816000875af1158015610876573d6000803e3d6000fd5b505050506040513d601f19601f8201168201806040525081019061089a9190611098565b9050806108d3576040517feb4c684700000000000000000000000000000000000000000000000000000000815260040160405180910390fd5b50505050565b60056020528060005260406000206000915090505481565b600160009054906101000a900473ffffffffffffffffffffffffffffffffffffffff1681565b336109218161035f565b600760008373ffffffffffffffffffffffffffffffffffffffff1673ffffffffffffffffffffffffffffffffffffffff16815260200190815260200160002081905550426003819055506000600760003373ffffffffffffffffffffffffffffffffffffffff1673ffffffffffffffffffffffffffffffffffffffff1681526020019081526020016000205490506000600160009054906101000a900473ffffffffffffffffffffffffffffffffffffffff1673ffffffffffffffffffffffffffffffffffffffff1663a9059cbb33846040518363ffffffff1660e01b8152600401610a0e929190611043565b6020604051808303816000875af1158015610a2d573d6000803e3d6000fd5b505050506040513d601f19601f82011682018060405250810190610a519190611098565b905080610a8a576040517feb4c684700000000000000000000000000000000000000000000000000000000815260040160405180910390fd5b81600660003373ffffffffffffffffffffffffffffffffffffffff1673ffffffffffffffffffffffffffffffffffffffff1681526020019081526020016000206000828254610ad9919061100f565b925050819055506000600760003373ffffffffffffffffffffffffffffffffffffffff1673ffffffffffffffffffffffffffffffffffffffff16815260200190815260200160002081905550505050565b600460149054906101000a900460ff1681565b3373ffffffffffffffffffffffffffffffffffffffff16600460009054906101000a900473ffffffffffffffffffffffffffffffffffffffff1673ffffffffffffffffffffffffffffffffffffffff1614610bc4576040517fc466007c00000000000000000000000000000000000000000000000000000000815260040160405180910390fd5b80600460146101000a81548160ff021916908360ff16021790555050565b60076020528060005260406000206000915090505481565b6000600460149054906101000a900460ff1660ff16905090565b600460009054906101000a900473ffffffffffffffffffffffffffffffffffffffff1681565b6000600660008373ffffffffffffffffffffffffffffffffffffffff1673ffffffffffffffffffffffffffffffffffffffff168152602001908152602001600020549050919050565b600080fd5b600073ffffffffffffffffffffffffffffffffffffffff82169050919050565b6000610cb382610c88565b9050919050565b610cc381610ca8565b8114610cce57600080fd5b50565b600081359050610ce081610cba565b92915050565b600060208284031215610cfc57610cfb610c83565b5b6000610d0a84828501610cd1565b91505092915050565b6000819050919050565b610d2681610d13565b82525050565b6000602082019050610d416000830184610d1d565b92915050565b610d5081610d13565b8114610d5b57600080fd5b50565b600081359050610d6d81610d47565b92915050565b600060208284031215610d8957610d88610c83565b5b6000610d9784828501610d5e565b91505092915050565b60008115159050919050565b610db581610da0565b82525050565b6000602082019050610dd06000830184610dac565b92915050565b6000819050919050565b6000610dfb610df6610df184610c88565b610dd6565b610c88565b9050919050565b6000610e0d82610de0565b9050919050565b6000610e1f82610e02565b9050919050565b610e2f81610e14565b82525050565b6000602082019050610e4a6000830184610e26565b92915050565b600060ff82169050919050565b610e6681610e50565b82525050565b6000602082019050610e816000830184610e5d565b92915050565b610e9081610e50565b8114610e9b57600080fd5b50565b600081359050610ead81610e87565b92915050565b600060208284031215610ec957610ec8610c83565b5b6000610ed784828501610e9e565b91505092915050565b610ee981610ca8565b82525050565b6000602082019050610f046000830184610ee0565b92915050565b7f4e487b7100000000000000000000000000000000000000000000000000000000600052601160045260246000fd5b6000610f4482610d13565b9150610f4f83610d13565b9250828203905081811115610f6757610f66610f0a565b5b92915050565b6000610f7882610d13565b9150610f8383610d13565b9250828202610f9181610d13565b91508282048414831517610fa857610fa7610f0a565b5b5092915050565b7f4e487b7100000000000000000000000000000000000000000000000000000000600052601260045260246000fd5b6000610fe982610d13565b9150610ff483610d13565b92508261100457611003610faf565b5b828204905092915050565b600061101a82610d13565b915061102583610d13565b925082820190508082111561103d5761103c610f0a565b5b92915050565b60006040820190506110586000830185610ee0565b6110656020830184610d1d565b9392505050565b61107581610da0565b811461108057600080fd5b50565b6000815190506110928161106c565b92915050565b6000602082840312156110ae576110ad610c83565b5b60006110bc84828501611083565b91505092915050565b60006060820190506110da6000830186610ee0565b6110e76020830185610ee0565b6110f46040830184610d1d565b94935050505056fea264697066735822122008297fef0c93cf960f2d51840ee0511c1029de574fed911a8a728a968d2b2a3664736f6c63430008180033",
  "linkReferences": {},
  "deployedLinkReferences": {}
}