{
  "_format": "hh-sol-artifact-1",
  "contractName": "StakingContract",
  "sourceName": "contracts/StakingContract.sol",
  "abi": [
    {
      "inputs": [
        {
          "internalType": "address",
          "name": "stakingToken",
          "type": "address"
        }
      ],
      "stateMutability": "nonpayable",
      "type": "constructor"
    },
    {
      "inputs": [],
      "name": "ReentrancyGuardReentrantCall",
      "type": "error"
    },
    {
      "inputs": [],
      "name": "claimReward",
      "outputs": [],
      "stateMutability": "nonpayable",
      "type": "function"
    },
    {
      "inputs": [
        {
          "internalType": "address",
          "name": "account",
          "type": "address"
        }
      ],
      "name": "earned",
      "outputs": [
        {
          "internalType": "uint256",
          "name": "",
          "type": "uint256"
        }
      ],
      "stateMutability": "view",
      "type": "function"
    },
    {
      "inputs": [],
      "name": "getRewardRates",
      "outputs": [
        {
          "internalType": "uint32[]",
          "name": "",
          "type": "uint32[]"
        }
      ],
      "stateMutability": "view",
      "type": "function"
    },
    {
      "inputs": [],
      "name": "isOwner",
      "outputs": [
        {
          "internalType": "bool",
          "name": "",
          "type": "bool"
        }
      ],
      "stateMutability": "view",
      "type": "function"
    },
    {
      "inputs": [
        {
          "internalType": "uint256",
          "name": "amount",
          "type": "uint256"
        },
        {
          "internalType": "uint8",
          "name": "sType",
          "type": "uint8"
        }
      ],
      "name": "stake",
      "outputs": [],
      "stateMutability": "nonpayable",
      "type": "function"
    },
    {
      "inputs": [],
      "name": "token",
      "outputs": [
        {
          "internalType": "contract UIBT",
          "name": "",
          "type": "address"
        }
      ],
      "stateMutability": "view",
      "type": "function"
    },
    {
      "inputs": [
        {
          "internalType": "address",
          "name": "",
          "type": "address"
        },
        {
          "internalType": "uint256",
          "name": "",
          "type": "uint256"
        }
      ],
      "name": "totalStakings",
      "outputs": [
        {
          "internalType": "uint256",
          "name": "balance",
          "type": "uint256"
        },
        {
          "internalType": "uint256",
          "name": "claimed",
          "type": "uint256"
        },
        {
          "internalType": "uint256",
          "name": "rewards",
          "type": "uint256"
        },
        {
          "internalType": "uint8",
          "name": "stakingType",
          "type": "uint8"
        }
      ],
      "stateMutability": "view",
      "type": "function"
    },
    {
      "inputs": [
        {
          "internalType": "uint8",
          "name": "sType",
          "type": "uint8"
        },
        {
          "internalType": "uint32",
          "name": "rate",
          "type": "uint32"
        }
      ],
      "name": "updateRewardRate",
      "outputs": [],
      "stateMutability": "nonpayable",
      "type": "function"
    },
    {
      "inputs": [
        {
          "internalType": "address",
          "name": "",
          "type": "address"
        },
        {
          "internalType": "uint256",
          "name": "",
          "type": "uint256"
        }
      ],
      "name": "userLockTimes",
      "outputs": [
        {
          "internalType": "uint256",
          "name": "",
          "type": "uint256"
        }
      ],
      "stateMutability": "view",
      "type": "function"
    },
    {
      "inputs": [],
      "name": "userStakingStatus",
      "outputs": [
        {
          "internalType": "uint256",
          "name": "",
          "type": "uint256"
        },
        {
          "internalType": "uint256",
          "name": "",
          "type": "uint256"
        },
        {
          "internalType": "uint8[]",
          "name": "",
          "type": "uint8[]"
        }
      ],
      "stateMutability": "view",
      "type": "function"
    },
    {
      "inputs": [
        {
          "internalType": "uint256",
          "name": "amount",
          "type": "uint256"
        }
      ],
      "name": "withdraw",
      "outputs": [],
      "stateMutability": "nonpayable",
      "type": "function"
    }
  ],
  "bytecode": "0x60c0604052620186a063ffffffff1660a09063ffffffff168152506040518060a001604052806213c68063ffffffff168152602001623b538063ffffffff1681526020016276a70063ffffffff168152602001629e340063ffffffff1681526020016301e1338063ffffffff1681525060049060056200008192919062000194565b506040518060a00160405280601b61ffff168152602001603761ffff168152602001605261ffff168152602001608961ffff16815260200161019b61ffff168152506005906005620000d5929190620001ee565b50348015620000e357600080fd5b50604051620027ab380380620027ab83398181016040528101906200010991906200032c565b600160008190555080600160006101000a81548173ffffffffffffffffffffffffffffffffffffffff021916908373ffffffffffffffffffffffffffffffffffffffff1602179055503373ffffffffffffffffffffffffffffffffffffffff1660808173ffffffffffffffffffffffffffffffffffffffff168152505042600381905550506200035e565b828054828255906000526020600020908101928215620001db579160200282015b82811115620001da578251829063ffffffff16905591602001919060010190620001b5565b5b509050620001ea9190620002a3565b5090565b82805482825590600052602060002090600701600890048101928215620002905791602002820160005b838211156200025c57835183826101000a81548163ffffffff021916908361ffff160217905550926020019260040160208160030104928301926001030262000218565b80156200028e5782816101000a81549063ffffffff02191690556004016020816003010492830192600103026200025c565b505b5090506200029f9190620002a3565b5090565b5b80821115620002be576000816000905550600101620002a4565b5090565b600080fd5b600073ffffffffffffffffffffffffffffffffffffffff82169050919050565b6000620002f482620002c7565b9050919050565b6200030681620002e7565b81146200031257600080fd5b50565b6000815190506200032681620002fb565b92915050565b600060208284031215620003455762000344620002c2565b5b6000620003558482850162000315565b91505092915050565b60805160a0516124206200038b600039600061166d015260008181610f1a0152610f8601526124206000f3fe608060405234801561001057600080fd5b50600436106100a85760003560e01c80638f32d59b116100715780638f32d59b14610153578063972a68d814610171578063b88a802f1461018d578063ba6bad8114610197578063d972a47d146101c7578063fc0c546a146101fa576100a8565b80628cc262146100ad5780630c056a31146100dd57806310087fb1146100fb5780632e1a7d4d14610117578063473160b414610133575b600080fd5b6100c760048036038101906100c291906117a9565b610218565b6040516100d491906117ef565b60405180910390f35b6100e56102fb565b6040516100f291906118d8565b60405180910390f35b6101156004803603810190610110919061195f565b610385565b005b610131600480360381019061012c919061199f565b6107b7565b005b61013b610cfd565b60405161014a93929190611a8a565b60405180910390f35b61015b610f16565b6040516101689190611ae3565b60405180910390f35b61018b60048036038101906101869190611b2a565b610f6c565b005b61019561104b565b005b6101b160048036038101906101ac9190611b6a565b611508565b6040516101be91906117ef565b60405180910390f35b6101e160048036038101906101dc9190611b6a565b611539565b6040516101f19493929190611bb9565b60405180910390f35b610202611583565b60405161020f9190611c5d565b60405180910390f35b6000806000905060005b600760008573ffffffffffffffffffffffffffffffffffffffff1673ffffffffffffffffffffffffffffffffffffffff168152602001908152602001600020805490508110156102f15760006102d385600760008873ffffffffffffffffffffffffffffffffffffffff1673ffffffffffffffffffffffffffffffffffffffff16815260200190815260200160002084815481106102c3576102c2611c78565b5b90600052602060002001546115a9565b905080836102e19190611cd6565b9250508080600101915050610222565b5080915050919050565b60606000600580548060200260200160405190810160405280929190818152602001828054801561037757602002820191906000526020600020906000905b82829054906101000a900463ffffffff1663ffffffff168152602001906004019060208260030104928301926001038202915080841161033a5790505b505050505090508091505090565b81600081036103c9576040517f08c379a00000000000000000000000000000000000000000000000000000000081526004016103c090611d8d565b60405180910390fd5b336000600660008373ffffffffffffffffffffffffffffffffffffffff1673ffffffffffffffffffffffffffffffffffffffff16815260200190815260200160002090506000600760008473ffffffffffffffffffffffffffffffffffffffff1673ffffffffffffffffffffffffffffffffffffffff16815260200190815260200160002080548060200260200160405190810160405280929190818152602001828054801561049857602002820191906000526020600020905b815481526020019060010190808311610484575b5050505050905060005b81518110156105155760006104d1858484815181106104c4576104c3611c78565b5b60200260200101516115a9565b9050808460008585815181106104ea576104e9611c78565b5b60200260200101518152602001908152602001600020600201819055505080806001019150506104a2565b50426003819055506000600660003373ffffffffffffffffffffffffffffffffffffffff1673ffffffffffffffffffffffffffffffffffffffff168152602001908152602001600020905061056861171b565b8781600001818152505086816060019060ff16908160ff1681525050600081602001818152505060008160400181815250508082600060048a60ff16815481106105b5576105b4611c78565b5b9060005260206000200154426105cb9190611cd6565b815260200190815260200160002060008201518160000155602082015181600101556040820151816002015560608201518160030160006101000a81548160ff021916908360ff160217905550905050600760003373ffffffffffffffffffffffffffffffffffffffff1673ffffffffffffffffffffffffffffffffffffffff16815260200190815260200160002060048860ff168154811061067157610670611c78565b5b9060005260206000200154426106879190611cd6565b908060018154018082558091505060019003906000526020600020016000909190919091505587600260008282546106bf9190611cd6565b925050819055506000600160009054906101000a900473ffffffffffffffffffffffffffffffffffffffff1673ffffffffffffffffffffffffffffffffffffffff166323b872dd33308c6040518463ffffffff1660e01b815260040161072793929190611dbc565b6020604051808303816000875af1158015610746573d6000803e3d6000fd5b505050506040513d601f19601f8201168201806040525081019061076a9190611e1f565b9050806107ac576040517f08c379a00000000000000000000000000000000000000000000000000000000081526004016107a390611ee4565b60405180910390fd5b505050505050505050565b80600081036107fb576040517f08c379a00000000000000000000000000000000000000000000000000000000081526004016107f290611d8d565b60405180910390fd5b336000600660008373ffffffffffffffffffffffffffffffffffffffff1673ffffffffffffffffffffffffffffffffffffffff16815260200190815260200160002090506000600760008473ffffffffffffffffffffffffffffffffffffffff1673ffffffffffffffffffffffffffffffffffffffff1681526020019081526020016000208054806020026020016040519081016040528092919081815260200182805480156108ca57602002820191906000526020600020905b8154815260200190600101908083116108b6575b5050505050905060005b8151811015610947576000610903858484815181106108f6576108f5611c78565b5b60200260200101516115a9565b90508084600085858151811061091c5761091b611c78565b5b60200260200101518152602001908152602001600020600201819055505080806001019150506108d4565b50426003819055506000600660003373ffffffffffffffffffffffffffffffffffffffff1673ffffffffffffffffffffffffffffffffffffffff1681526020019081526020016000209050600080600760003373ffffffffffffffffffffffffffffffffffffffff1673ffffffffffffffffffffffffffffffffffffffff168152602001908152602001600020805480602002602001604051908101604052809291908181526020018280548015610a1e57602002820191906000526020600020905b815481526020019060010190808311610a0a575b5050505050905060005b8151811015610aa85742828281518110610a4557610a44611c78565b5b60200260200101511015610a9557836000838381518110610a6957610a68611c78565b5b602002602001015181526020019081526020016000206000015483610a8e9190611cd6565b9250610a9a565b610a9b565b5b8080600101915050610a28565b5087821015610aec576040517f08c379a0000000000000000000000000000000000000000000000000000000008152600401610ae390611f76565b60405180910390fd5b600088905060005b8251811015610ba95742838281518110610b1157610b10611c78565b5b602002602001015111610b9c576000856000858481518110610b3657610b35611c78565b5b60200260200101518152602001908152602001600020905082816000015410610b7e5782816000016000828254610b6d9190611f96565b925050819055506000925050610ba9565b806000015483610b8e9190611f96565b925060008160000181905550505b8080600101915050610af4565b5060008114610bed576040517f08c379a0000000000000000000000000000000000000000000000000000000008152600401610be490612062565b60405180910390fd5b426003819055508860026000828254610c069190611f96565b925050819055506000600160009054906101000a900473ffffffffffffffffffffffffffffffffffffffff1673ffffffffffffffffffffffffffffffffffffffff1663a9059cbb338c6040518363ffffffff1660e01b8152600401610c6c929190612082565b6020604051808303816000875af1158015610c8b573d6000803e3d6000fd5b505050506040513d601f19601f82011682018060405250810190610caf9190611e1f565b905080610cf1576040517f08c379a0000000000000000000000000000000000000000000000000000000008152600401610ce890612143565b60405180910390fd5b50505050505050505050565b60008060606000600760003373ffffffffffffffffffffffffffffffffffffffff1673ffffffffffffffffffffffffffffffffffffffff168152602001908152602001600020805480602002602001604051908101604052809291908181526020018280548015610d8d57602002820191906000526020600020905b815481526020019060010190808311610d79575b505050505090506000806000835167ffffffffffffffff811115610db457610db3612163565b5b604051908082528060200260200182016040528015610de25781602001602082028036833780820191505090505b50905060005b8451811015610f03576000600660003373ffffffffffffffffffffffffffffffffffffffff1673ffffffffffffffffffffffffffffffffffffffff1681526020019081526020016000206000878481518110610e4757610e46611c78565b5b602002602001015181526020019081526020016000206040518060800160405290816000820154815260200160018201548152602001600282015481526020016003820160009054906101000a900460ff1660ff1660ff16815250509050806000015185610eb59190611cd6565b9450806020015184610ec79190611cd6565b93508060600151838381518110610ee157610ee0611c78565b5b602002602001019060ff16908160ff1681525050508080600101915050610de8565b5082828296509650965050505050909192565b60007f000000000000000000000000000000000000000000000000000000000000000073ffffffffffffffffffffffffffffffffffffffff163373ffffffffffffffffffffffffffffffffffffffff1614905090565b338073ffffffffffffffffffffffffffffffffffffffff167f000000000000000000000000000000000000000000000000000000000000000073ffffffffffffffffffffffffffffffffffffffff1614610ffb576040517f08c379a0000000000000000000000000000000000000000000000000000000008152600401610ff290612204565b60405180910390fd5b8160058460ff168154811061101357611012611c78565b5b90600052602060002090600891828204019190066004026101000a81548163ffffffff021916908363ffffffff160217905550505050565b336000600660008373ffffffffffffffffffffffffffffffffffffffff1673ffffffffffffffffffffffffffffffffffffffff16815260200190815260200160002090506000600760008473ffffffffffffffffffffffffffffffffffffffff1673ffffffffffffffffffffffffffffffffffffffff16815260200190815260200160002080548060200260200160405190810160405280929190818152602001828054801561111a57602002820191906000526020600020905b815481526020019060010190808311611106575b5050505050905060005b81518110156111975760006111538584848151811061114657611145611c78565b5b60200260200101516115a9565b90508084600085858151811061116c5761116b611c78565b5b6020026020010151815260200190815260200160002060020181905550508080600101915050611124565b5042600381905550600080600760003373ffffffffffffffffffffffffffffffffffffffff1673ffffffffffffffffffffffffffffffffffffffff16815260200190815260200160002080548060200260200160405190810160405280929190818152602001828054801561122b57602002820191906000526020600020905b815481526020019060010190808311611217575b505050505090506000600660003373ffffffffffffffffffffffffffffffffffffffff1673ffffffffffffffffffffffffffffffffffffffff168152602001908152602001600020905060005b82518110156112f8574283828151811061129557611294611c78565b5b602002602001015110156112e5578160008483815181106112b9576112b8611c78565b5b6020026020010151815260200190815260200160002060020154846112de9190611cd6565b93506112ea565b6112eb565b5b8080600101915050611278565b506000831161133c576040517f08c379a000000000000000000000000000000000000000000000000000000000815260040161133390612270565b60405180910390fd5b60005b825181101561141a574283828151811061135c5761135b611c78565b5b60200260200101511015611407578160008483815181106113805761137f611c78565b5b60200260200101518152602001908152602001600020600201548260008584815181106113b0576113af611c78565b5b602002602001015181526020019081526020016000206001018190555060008260008584815181106113e5576113e4611c78565b5b602002602001015181526020019081526020016000206002018190555061140c565b61140d565b5b808060010191505061133f565b506000600160009054906101000a900473ffffffffffffffffffffffffffffffffffffffff1673ffffffffffffffffffffffffffffffffffffffff1663a9059cbb33866040518363ffffffff1660e01b815260040161147a929190612082565b6020604051808303816000875af1158015611499573d6000803e3d6000fd5b505050506040513d601f19601f820116820180604052508101906114bd9190611e1f565b9050806114ff576040517f08c379a00000000000000000000000000000000000000000000000000000000081526004016114f690612328565b60405180910390fd5b50505050505050565b6007602052816000526040600020818154811061152457600080fd5b90600052602060002001600091509150505481565b6006602052816000526040600020602052806000526040600020600091509150508060000154908060010154908060020154908060030160009054906101000a900460ff16905084565b600160009054906101000a900473ffffffffffffffffffffffffffffffffffffffff1681565b600080600660008573ffffffffffffffffffffffffffffffffffffffff1673ffffffffffffffffffffffffffffffffffffffff16815260200190815260200160002060008481526020019081526020016000206040518060800160405290816000820154815260200160018201548152602001600282015481526020016003820160009054906101000a900460ff1660ff1660ff16815250509050600081600001519050600082604001519050600081620151806003544261166b9190611f96565b7f000000000000000000000000000000000000000000000000000000000000000063ffffffff166005886060015160ff16815481106116ad576116ac611c78565b5b90600052602060002090600891828204019190066004029054906101000a900463ffffffff1663ffffffff16876116e49190612348565b6116ee91906123b9565b6116f89190612348565b61170291906123b9565b61170c9190611cd6565b90508094505050505092915050565b6040518060800160405280600081526020016000815260200160008152602001600060ff1681525090565b600080fd5b600073ffffffffffffffffffffffffffffffffffffffff82169050919050565b60006117768261174b565b9050919050565b6117868161176b565b811461179157600080fd5b50565b6000813590506117a38161177d565b92915050565b6000602082840312156117bf576117be611746565b5b60006117cd84828501611794565b91505092915050565b6000819050919050565b6117e9816117d6565b82525050565b600060208201905061180460008301846117e0565b92915050565b600081519050919050565b600082825260208201905092915050565b6000819050602082019050919050565b600063ffffffff82169050919050565b61184f81611836565b82525050565b60006118618383611846565b60208301905092915050565b6000602082019050919050565b60006118858261180a565b61188f8185611815565b935061189a83611826565b8060005b838110156118cb5781516118b28882611855565b97506118bd8361186d565b92505060018101905061189e565b5085935050505092915050565b600060208201905081810360008301526118f2818461187a565b905092915050565b611903816117d6565b811461190e57600080fd5b50565b600081359050611920816118fa565b92915050565b600060ff82169050919050565b61193c81611926565b811461194757600080fd5b50565b60008135905061195981611933565b92915050565b6000806040838503121561197657611975611746565b5b600061198485828601611911565b92505060206119958582860161194a565b9150509250929050565b6000602082840312156119b5576119b4611746565b5b60006119c384828501611911565b91505092915050565b600081519050919050565b600082825260208201905092915050565b6000819050602082019050919050565b611a0181611926565b82525050565b6000611a1383836119f8565b60208301905092915050565b6000602082019050919050565b6000611a37826119cc565b611a4181856119d7565b9350611a4c836119e8565b8060005b83811015611a7d578151611a648882611a07565b9750611a6f83611a1f565b925050600181019050611a50565b5085935050505092915050565b6000606082019050611a9f60008301866117e0565b611aac60208301856117e0565b8181036040830152611abe8184611a2c565b9050949350505050565b60008115159050919050565b611add81611ac8565b82525050565b6000602082019050611af86000830184611ad4565b92915050565b611b0781611836565b8114611b1257600080fd5b50565b600081359050611b2481611afe565b92915050565b60008060408385031215611b4157611b40611746565b5b6000611b4f8582860161194a565b9250506020611b6085828601611b15565b9150509250929050565b60008060408385031215611b8157611b80611746565b5b6000611b8f85828601611794565b9250506020611ba085828601611911565b9150509250929050565b611bb381611926565b82525050565b6000608082019050611bce60008301876117e0565b611bdb60208301866117e0565b611be860408301856117e0565b611bf56060830184611baa565b95945050505050565b6000819050919050565b6000611c23611c1e611c198461174b565b611bfe565b61174b565b9050919050565b6000611c3582611c08565b9050919050565b6000611c4782611c2a565b9050919050565b611c5781611c3c565b82525050565b6000602082019050611c726000830184611c4e565b92915050565b7f4e487b7100000000000000000000000000000000000000000000000000000000600052603260045260246000fd5b7f4e487b7100000000000000000000000000000000000000000000000000000000600052601160045260246000fd5b6000611ce1826117d6565b9150611cec836117d6565b9250828201905080821115611d0457611d03611ca7565b5b92915050565b600082825260208201905092915050565b7f506c6561736520656e74657220616d6f756e742067726561746572207468616e60008201527f207a65726f2e0000000000000000000000000000000000000000000000000000602082015250565b6000611d77602683611d0a565b9150611d8282611d1b565b604082019050919050565b60006020820190508181036000830152611da681611d6a565b9050919050565b611db68161176b565b82525050565b6000606082019050611dd16000830186611dad565b611dde6020830185611dad565b611deb60408301846117e0565b949350505050565b611dfc81611ac8565b8114611e0757600080fd5b50565b600081519050611e1981611df3565b92915050565b600060208284031215611e3557611e34611746565b5b6000611e4384828501611e0a565b91505092915050565b7f4572726f72206f63637572726564207768696c65207374616b696e672e28457260008201527f726f72436f64653a203030322920436f6e746163742061646d696e697374726160208201527f746f722e00000000000000000000000000000000000000000000000000000000604082015250565b6000611ece604483611d0a565b9150611ed982611e4c565b606082019050919050565b60006020820190508181036000830152611efd81611ec1565b9050919050565b7f526571756972656420616d6f756e74206973206e6f7420617661696c61626c6560008201527f20666f72207769746864726177616c2e00000000000000000000000000000000602082015250565b6000611f60603083611d0a565b9150611f6b82611f04565b604082019050919050565b60006020820190508181036000830152611f8f81611f53565b9050919050565b6000611fa1826117d6565b9150611fac836117d6565b9250828203905081811115611fc457611fc3611ca7565b5b92915050565b7f4572726f72206f63637572726564207768696c65207769746864726177696e6760008201527f2e284572726f72436f64653a203030312920436f6e746163742061646d696e6960208201527f73747261746f722e000000000000000000000000000000000000000000000000604082015250565b600061204c604883611d0a565b915061205782611fca565b606082019050919050565b6000602082019050818103600083015261207b8161203f565b9050919050565b60006040820190506120976000830185611dad565b6120a460208301846117e0565b9392505050565b7f4572726f72206f63637572726564207768696c65207769746864726177696e6760008201527f2e284572726f72436f64653a203030322920436f6e746163742061646d696e6960208201527f73747261746f722e000000000000000000000000000000000000000000000000604082015250565b600061212d604883611d0a565b9150612138826120ab565b606082019050919050565b6000602082019050818103600083015261215c81612120565b9050919050565b7f4e487b7100000000000000000000000000000000000000000000000000000000600052604160045260246000fd5b7f4f6e6c792041646d696e696e73747261746f72284465706c6f7965722920636160008201527f6e20646f2074686973206f7065726174696f6e2e000000000000000000000000602082015250565b60006121ee603483611d0a565b91506121f982612192565b604082019050919050565b6000602082019050818103600083015261221d816121e1565b9050919050565b7f4e6f7420656e6f7567682072657761726420746f20636c61696d2e0000000000600082015250565b600061225a601b83611d0a565b915061226582612224565b602082019050919050565b600060208201905081810360008301526122898161224d565b9050919050565b7f4572726f72206f63637572726564207768696c6520636c61696d696e672e284560008201527f72726f72436f64653a203030332920436f6e746163742061646d696e6973747260208201527f61746f722e000000000000000000000000000000000000000000000000000000604082015250565b6000612312604583611d0a565b915061231d82612290565b606082019050919050565b6000602082019050818103600083015261234181612305565b9050919050565b6000612353826117d6565b915061235e836117d6565b925082820261236c816117d6565b9150828204841483151761238357612382611ca7565b5b5092915050565b7f4e487b7100000000000000000000000000000000000000000000000000000000600052601260045260246000fd5b60006123c4826117d6565b91506123cf836117d6565b9250826123df576123de61238a565b5b82820490509291505056fea2646970667358221220f4ac2ca2906383cd7d054ff9ad938e0c3ca0c6592170e9fbce75d27c06d60a7c64736f6c63430008180033",
  "linkReferences": {},
  "deployedLinkReferences": {}
}