{
  "_format": "hh-sol-artifact-1",
  "contractName": "StakingContract",
  "sourceName": "contracts/StakingContract.sol",
  "abi": [
    {
      "inputs": [
        {
          "internalType": "address",
          "name": "stakingToken",
          "type": "address"
        }
      ],
      "stateMutability": "nonpayable",
      "type": "constructor"
    },
    {
      "inputs": [],
      "name": "ReentrancyGuardReentrantCall",
      "type": "error"
    },
    {
      "inputs": [],
      "name": "claimReward",
      "outputs": [],
      "stateMutability": "nonpayable",
      "type": "function"
    },
    {
      "inputs": [
        {
          "internalType": "uint256",
          "name": "lockTime",
          "type": "uint256"
        }
      ],
      "name": "claimRewardAndUnstake",
      "outputs": [],
      "stateMutability": "nonpayable",
      "type": "function"
    },
    {
      "inputs": [
        {
          "internalType": "address",
          "name": "account",
          "type": "address"
        }
      ],
      "name": "earned",
      "outputs": [
        {
          "internalType": "uint256",
          "name": "",
          "type": "uint256"
        }
      ],
      "stateMutability": "view",
      "type": "function"
    },
    {
      "inputs": [],
      "name": "getRewardRates",
      "outputs": [
        {
          "internalType": "uint32[]",
          "name": "",
          "type": "uint32[]"
        }
      ],
      "stateMutability": "view",
      "type": "function"
    },
    {
      "inputs": [],
      "name": "isOwner",
      "outputs": [
        {
          "internalType": "bool",
          "name": "",
          "type": "bool"
        }
      ],
      "stateMutability": "view",
      "type": "function"
    },
    {
      "inputs": [
        {
          "internalType": "uint256",
          "name": "amount",
          "type": "uint256"
        },
        {
          "internalType": "uint8",
          "name": "sType",
          "type": "uint8"
        }
      ],
      "name": "stake",
      "outputs": [],
      "stateMutability": "nonpayable",
      "type": "function"
    },
    {
      "inputs": [],
      "name": "token",
      "outputs": [
        {
          "internalType": "contract IERC20",
          "name": "",
          "type": "address"
        }
      ],
      "stateMutability": "view",
      "type": "function"
    },
    {
      "inputs": [
        {
          "internalType": "address",
          "name": "",
          "type": "address"
        },
        {
          "internalType": "uint256",
          "name": "",
          "type": "uint256"
        }
      ],
      "name": "totalStakings",
      "outputs": [
        {
          "internalType": "uint256",
          "name": "balance",
          "type": "uint256"
        },
        {
          "internalType": "uint256",
          "name": "claimed",
          "type": "uint256"
        },
        {
          "internalType": "uint256",
          "name": "rewards",
          "type": "uint256"
        },
        {
          "internalType": "uint8",
          "name": "stakingType",
          "type": "uint8"
        }
      ],
      "stateMutability": "view",
      "type": "function"
    },
    {
      "inputs": [
        {
          "internalType": "uint8",
          "name": "sType",
          "type": "uint8"
        },
        {
          "internalType": "uint32",
          "name": "rate",
          "type": "uint32"
        }
      ],
      "name": "updateRewardRate",
      "outputs": [],
      "stateMutability": "nonpayable",
      "type": "function"
    },
    {
      "inputs": [
        {
          "internalType": "address",
          "name": "",
          "type": "address"
        },
        {
          "internalType": "uint256",
          "name": "",
          "type": "uint256"
        }
      ],
      "name": "userLockTimes",
      "outputs": [
        {
          "internalType": "uint256",
          "name": "",
          "type": "uint256"
        }
      ],
      "stateMutability": "view",
      "type": "function"
    },
    {
      "inputs": [
        {
          "internalType": "uint256",
          "name": "lockTime",
          "type": "uint256"
        }
      ],
      "name": "userStakingRecordDetails",
      "outputs": [
        {
          "internalType": "uint256",
          "name": "",
          "type": "uint256"
        },
        {
          "internalType": "uint256",
          "name": "",
          "type": "uint256"
        },
        {
          "internalType": "uint256",
          "name": "",
          "type": "uint256"
        },
        {
          "internalType": "uint8",
          "name": "",
          "type": "uint8"
        },
        {
          "internalType": "bool",
          "name": "",
          "type": "bool"
        }
      ],
      "stateMutability": "view",
      "type": "function"
    },
    {
      "inputs": [],
      "name": "userStakingStatus",
      "outputs": [
        {
          "internalType": "uint256",
          "name": "",
          "type": "uint256"
        },
        {
          "internalType": "uint256",
          "name": "",
          "type": "uint256"
        },
        {
          "internalType": "uint8[]",
          "name": "",
          "type": "uint8[]"
        }
      ],
      "stateMutability": "view",
      "type": "function"
    },
    {
      "inputs": [],
      "name": "userStakingStatusRecords",
      "outputs": [
        {
          "internalType": "uint256[]",
          "name": "",
          "type": "uint256[]"
        }
      ],
      "stateMutability": "view",
      "type": "function"
    },
    {
      "inputs": [
        {
          "internalType": "uint256",
          "name": "amount",
          "type": "uint256"
        }
      ],
      "name": "withdraw",
      "outputs": [],
      "stateMutability": "nonpayable",
      "type": "function"
    }
  ],
  "bytecode": "0x60c0604052620186a063ffffffff1660a09063ffffffff168152506040518060a001604052806213c68063ffffffff168152602001623b538063ffffffff1681526020016276a70063ffffffff168152602001629e340063ffffffff1681526020016301e1338063ffffffff1681525060049060056200008192919062000194565b506040518060a00160405280601b61ffff168152602001603761ffff168152602001605261ffff168152602001608961ffff16815260200161019b61ffff168152506005906005620000d5929190620001ee565b50348015620000e357600080fd5b5060405162002ffe38038062002ffe83398181016040528101906200010991906200032c565b600160008190555080600160006101000a81548173ffffffffffffffffffffffffffffffffffffffff021916908373ffffffffffffffffffffffffffffffffffffffff1602179055503373ffffffffffffffffffffffffffffffffffffffff1660808173ffffffffffffffffffffffffffffffffffffffff168152505042600381905550506200035e565b828054828255906000526020600020908101928215620001db579160200282015b82811115620001da578251829063ffffffff16905591602001919060010190620001b5565b5b509050620001ea9190620002a3565b5090565b82805482825590600052602060002090600701600890048101928215620002905791602002820160005b838211156200025c57835183826101000a81548163ffffffff021916908361ffff160217905550926020019260040160208160030104928301926001030262000218565b80156200028e5782816101000a81549063ffffffff02191690556004016020816003010492830192600103026200025c565b505b5090506200029f9190620002a3565b5090565b5b80821115620002be576000816000905550600101620002a4565b5090565b600080fd5b600073ffffffffffffffffffffffffffffffffffffffff82169050919050565b6000620002f482620002c7565b9050919050565b6200030681620002e7565b81146200031257600080fd5b50565b6000815190506200032681620002fb565b92915050565b600060208284031215620003455762000344620002c2565b5b6000620003558482850162000315565b91505092915050565b60805160a051612c736200038b6000396000611bd70152600081816110a0015261110c0152612c736000f3fe608060405234801561001057600080fd5b50600436106100e95760003560e01c8063972a68d81161008c578063d972a47d11610066578063d972a47d1461023c578063f99d15611461026f578063fc0c546a1461028d578063fc29be77146102ab576100e9565b8063972a68d8146101e6578063b88a802f14610202578063ba6bad811461020c576100e9565b80632e1a7d4d116100c85780632e1a7d4d14610158578063473160b414610174578063570e32dd146101945780638f32d59b146101c8576100e9565b80628cc262146100ee5780630c056a311461011e57806310087fb11461013c575b600080fd5b61010860048036038101906101039190611d13565b6102c7565b6040516101159190611d59565b60405180910390f35b6101266103aa565b6040516101339190611e42565b60405180910390f35b61015660048036038101906101519190611ec9565b610434565b005b610172600480360381019061016d9190611f09565b610866565b005b61017c610dac565b60405161018b93929190611ff4565b60405180910390f35b6101ae60048036038101906101a99190611f09565b610fc5565b6040516101bf95949392919061205c565b60405180910390f35b6101d061109c565b6040516101dd91906120af565b60405180910390f35b61020060048036038101906101fb91906120f6565b6110f2565b005b61020a6111d1565b005b61022660048036038101906102219190612136565b61168e565b6040516102339190611d59565b60405180910390f35b61025660048036038101906102519190612136565b6116bf565b6040516102669493929190612176565b60405180910390f35b610277611709565b6040516102849190612279565b60405180910390f35b61029561179e565b6040516102a291906122fa565b60405180910390f35b6102c560048036038101906102c09190611f09565b6117c4565b005b6000806000905060005b600760008573ffffffffffffffffffffffffffffffffffffffff1673ffffffffffffffffffffffffffffffffffffffff168152602001908152602001600020805490508110156103a057600061038285600760008873ffffffffffffffffffffffffffffffffffffffff1673ffffffffffffffffffffffffffffffffffffffff168152602001908152602001600020848154811061037257610371612315565b5b9060005260206000200154611b13565b905080836103909190612373565b92505080806001019150506102d1565b5080915050919050565b60606000600580548060200260200160405190810160405280929190818152602001828054801561042657602002820191906000526020600020906000905b82829054906101000a900463ffffffff1663ffffffff16815260200190600401906020826003010492830192600103820291508084116103e95790505b505050505090508091505090565b8160008103610478576040517f08c379a000000000000000000000000000000000000000000000000000000000815260040161046f9061242a565b60405180910390fd5b336000600660008373ffffffffffffffffffffffffffffffffffffffff1673ffffffffffffffffffffffffffffffffffffffff16815260200190815260200160002090506000600760008473ffffffffffffffffffffffffffffffffffffffff1673ffffffffffffffffffffffffffffffffffffffff16815260200190815260200160002080548060200260200160405190810160405280929190818152602001828054801561054757602002820191906000526020600020905b815481526020019060010190808311610533575b5050505050905060005b81518110156105c45760006105808584848151811061057357610572612315565b5b6020026020010151611b13565b90508084600085858151811061059957610598612315565b5b6020026020010151815260200190815260200160002060020181905550508080600101915050610551565b50426003819055506000600660003373ffffffffffffffffffffffffffffffffffffffff1673ffffffffffffffffffffffffffffffffffffffff1681526020019081526020016000209050610617611c85565b8781600001818152505086816060019060ff16908160ff1681525050600081602001818152505060008160400181815250508082600060048a60ff168154811061066457610663612315565b5b90600052602060002001544261067a9190612373565b815260200190815260200160002060008201518160000155602082015181600101556040820151816002015560608201518160030160006101000a81548160ff021916908360ff160217905550905050600760003373ffffffffffffffffffffffffffffffffffffffff1673ffffffffffffffffffffffffffffffffffffffff16815260200190815260200160002060048860ff16815481106107205761071f612315565b5b9060005260206000200154426107369190612373565b9080600181540180825580915050600190039060005260206000200160009091909190915055876002600082825461076e9190612373565b925050819055506000600160009054906101000a900473ffffffffffffffffffffffffffffffffffffffff1673ffffffffffffffffffffffffffffffffffffffff166323b872dd33308c6040518463ffffffff1660e01b81526004016107d693929190612459565b6020604051808303816000875af11580156107f5573d6000803e3d6000fd5b505050506040513d601f19601f8201168201806040525081019061081991906124bc565b90508061085b576040517f08c379a000000000000000000000000000000000000000000000000000000000815260040161085290612581565b60405180910390fd5b505050505050505050565b80600081036108aa576040517f08c379a00000000000000000000000000000000000000000000000000000000081526004016108a19061242a565b60405180910390fd5b336000600660008373ffffffffffffffffffffffffffffffffffffffff1673ffffffffffffffffffffffffffffffffffffffff16815260200190815260200160002090506000600760008473ffffffffffffffffffffffffffffffffffffffff1673ffffffffffffffffffffffffffffffffffffffff16815260200190815260200160002080548060200260200160405190810160405280929190818152602001828054801561097957602002820191906000526020600020905b815481526020019060010190808311610965575b5050505050905060005b81518110156109f65760006109b2858484815181106109a5576109a4612315565b5b6020026020010151611b13565b9050808460008585815181106109cb576109ca612315565b5b6020026020010151815260200190815260200160002060020181905550508080600101915050610983565b50426003819055506000600660003373ffffffffffffffffffffffffffffffffffffffff1673ffffffffffffffffffffffffffffffffffffffff1681526020019081526020016000209050600080600760003373ffffffffffffffffffffffffffffffffffffffff1673ffffffffffffffffffffffffffffffffffffffff168152602001908152602001600020805480602002602001604051908101604052809291908181526020018280548015610acd57602002820191906000526020600020905b815481526020019060010190808311610ab9575b5050505050905060005b8151811015610b575742828281518110610af457610af3612315565b5b60200260200101511015610b4457836000838381518110610b1857610b17612315565b5b602002602001015181526020019081526020016000206000015483610b3d9190612373565b9250610b49565b610b4a565b5b8080600101915050610ad7565b5087821015610b9b576040517f08c379a0000000000000000000000000000000000000000000000000000000008152600401610b9290612613565b60405180910390fd5b600088905060005b8251811015610c585742838281518110610bc057610bbf612315565b5b602002602001015111610c4b576000856000858481518110610be557610be4612315565b5b60200260200101518152602001908152602001600020905082816000015410610c2d5782816000016000828254610c1c9190612633565b925050819055506000925050610c58565b806000015483610c3d9190612633565b925060008160000181905550505b8080600101915050610ba3565b5060008114610c9c576040517f08c379a0000000000000000000000000000000000000000000000000000000008152600401610c93906126ff565b60405180910390fd5b426003819055508860026000828254610cb59190612633565b925050819055506000600160009054906101000a900473ffffffffffffffffffffffffffffffffffffffff1673ffffffffffffffffffffffffffffffffffffffff1663a9059cbb338c6040518363ffffffff1660e01b8152600401610d1b92919061271f565b6020604051808303816000875af1158015610d3a573d6000803e3d6000fd5b505050506040513d601f19601f82011682018060405250810190610d5e91906124bc565b905080610da0576040517f08c379a0000000000000000000000000000000000000000000000000000000008152600401610d97906127e0565b60405180910390fd5b50505050505050505050565b60008060606000600760003373ffffffffffffffffffffffffffffffffffffffff1673ffffffffffffffffffffffffffffffffffffffff168152602001908152602001600020805480602002602001604051908101604052809291908181526020018280548015610e3c57602002820191906000526020600020905b815481526020019060010190808311610e28575b505050505090506000806000835167ffffffffffffffff811115610e6357610e62612800565b5b604051908082528060200260200182016040528015610e915781602001602082028036833780820191505090505b50905060005b8451811015610fb2576000600660003373ffffffffffffffffffffffffffffffffffffffff1673ffffffffffffffffffffffffffffffffffffffff1681526020019081526020016000206000878481518110610ef657610ef5612315565b5b602002602001015181526020019081526020016000206040518060800160405290816000820154815260200160018201548152602001600282015481526020016003820160009054906101000a900460ff1660ff1660ff16815250509050806000015185610f649190612373565b9450806020015184610f769190612373565b93508060600151838381518110610f9057610f8f612315565b5b602002602001019060ff16908160ff1681525050508080600101915050610e97565b5082828296509650965050505050909192565b600080600080600080600660003373ffffffffffffffffffffffffffffffffffffffff1673ffffffffffffffffffffffffffffffffffffffff16815260200190815260200160002060008881526020019081526020016000206040518060800160405290816000820154815260200160018201548152602001600282015481526020016003820160009054906101000a900460ff1660ff1660ff1681525050905060006110723389611b13565b905081600001518260200151828460600151428c1096509650965096509650505091939590929450565b60007f000000000000000000000000000000000000000000000000000000000000000073ffffffffffffffffffffffffffffffffffffffff163373ffffffffffffffffffffffffffffffffffffffff1614905090565b338073ffffffffffffffffffffffffffffffffffffffff167f000000000000000000000000000000000000000000000000000000000000000073ffffffffffffffffffffffffffffffffffffffff1614611181576040517f08c379a0000000000000000000000000000000000000000000000000000000008152600401611178906128a1565b60405180910390fd5b8160058460ff168154811061119957611198612315565b5b90600052602060002090600891828204019190066004026101000a81548163ffffffff021916908363ffffffff160217905550505050565b336000600660008373ffffffffffffffffffffffffffffffffffffffff1673ffffffffffffffffffffffffffffffffffffffff16815260200190815260200160002090506000600760008473ffffffffffffffffffffffffffffffffffffffff1673ffffffffffffffffffffffffffffffffffffffff1681526020019081526020016000208054806020026020016040519081016040528092919081815260200182805480156112a057602002820191906000526020600020905b81548152602001906001019080831161128c575b5050505050905060005b815181101561131d5760006112d9858484815181106112cc576112cb612315565b5b6020026020010151611b13565b9050808460008585815181106112f2576112f1612315565b5b60200260200101518152602001908152602001600020600201819055505080806001019150506112aa565b5042600381905550600080600760003373ffffffffffffffffffffffffffffffffffffffff1673ffffffffffffffffffffffffffffffffffffffff1681526020019081526020016000208054806020026020016040519081016040528092919081815260200182805480156113b157602002820191906000526020600020905b81548152602001906001019080831161139d575b505050505090506000600660003373ffffffffffffffffffffffffffffffffffffffff1673ffffffffffffffffffffffffffffffffffffffff168152602001908152602001600020905060005b825181101561147e574283828151811061141b5761141a612315565b5b6020026020010151101561146b5781600084838151811061143f5761143e612315565b5b6020026020010151815260200190815260200160002060020154846114649190612373565b9350611470565b611471565b5b80806001019150506113fe565b50600083116114c2576040517f08c379a00000000000000000000000000000000000000000000000000000000081526004016114b99061290d565b60405180910390fd5b60005b82518110156115a057428382815181106114e2576114e1612315565b5b6020026020010151101561158d5781600084838151811061150657611505612315565b5b602002602001015181526020019081526020016000206002015482600085848151811061153657611535612315565b5b6020026020010151815260200190815260200160002060010181905550600082600085848151811061156b5761156a612315565b5b6020026020010151815260200190815260200160002060020181905550611592565b611593565b5b80806001019150506114c5565b506000600160009054906101000a900473ffffffffffffffffffffffffffffffffffffffff1673ffffffffffffffffffffffffffffffffffffffff1663a9059cbb33866040518363ffffffff1660e01b815260040161160092919061271f565b6020604051808303816000875af115801561161f573d6000803e3d6000fd5b505050506040513d601f19601f8201168201806040525081019061164391906124bc565b905080611685576040517f08c379a000000000000000000000000000000000000000000000000000000000815260040161167c906129c5565b60405180910390fd5b50505050505050565b600760205281600052604060002081815481106116aa57600080fd5b90600052602060002001600091509150505481565b6006602052816000526040600020602052806000526040600020600091509150508060000154908060010154908060020154908060030160009054906101000a900460ff16905084565b6060600760003373ffffffffffffffffffffffffffffffffffffffff1673ffffffffffffffffffffffffffffffffffffffff16815260200190815260200160002080548060200260200160405190810160405280929190818152602001828054801561179457602002820191906000526020600020905b815481526020019060010190808311611780575b5050505050905090565b600160009054906101000a900473ffffffffffffffffffffffffffffffffffffffff1681565b336000600660008373ffffffffffffffffffffffffffffffffffffffff1673ffffffffffffffffffffffffffffffffffffffff16815260200190815260200160002090506000600760008473ffffffffffffffffffffffffffffffffffffffff1673ffffffffffffffffffffffffffffffffffffffff16815260200190815260200160002080548060200260200160405190810160405280929190818152602001828054801561189357602002820191906000526020600020905b81548152602001906001019080831161187f575b5050505050905060005b81518110156119105760006118cc858484815181106118bf576118be612315565b5b6020026020010151611b13565b9050808460008585815181106118e5576118e4612315565b5b602002602001015181526020019081526020016000206002018190555050808060010191505061189d565b504260038190555042841061195a576040517f08c379a000000000000000000000000000000000000000000000000000000000815260040161195190612a57565b60405180910390fd5b6000600660003373ffffffffffffffffffffffffffffffffffffffff1673ffffffffffffffffffffffffffffffffffffffff168152602001908152602001600020600086815260200190815260200160002090506000816000015482600201546119c49190612373565b905060008111611a09576040517f08c379a0000000000000000000000000000000000000000000000000000000008152600401611a0090612ac3565b60405180910390fd5b60008260000181905550600082600201819055508082600101819055506000600160009054906101000a900473ffffffffffffffffffffffffffffffffffffffff1673ffffffffffffffffffffffffffffffffffffffff1663a9059cbb33846040518363ffffffff1660e01b8152600401611a8592919061271f565b6020604051808303816000875af1158015611aa4573d6000803e3d6000fd5b505050506040513d601f19601f82011682018060405250810190611ac891906124bc565b905080611b0a576040517f08c379a0000000000000000000000000000000000000000000000000000000008152600401611b0190612b7b565b60405180910390fd5b50505050505050565b600080600660008573ffffffffffffffffffffffffffffffffffffffff1673ffffffffffffffffffffffffffffffffffffffff16815260200190815260200160002060008481526020019081526020016000206040518060800160405290816000820154815260200160018201548152602001600282015481526020016003820160009054906101000a900460ff1660ff1660ff168152505090506000816000015190506000826040015190506000816201518060035442611bd59190612633565b7f000000000000000000000000000000000000000000000000000000000000000063ffffffff166005886060015160ff1681548110611c1757611c16612315565b5b90600052602060002090600891828204019190066004029054906101000a900463ffffffff1663ffffffff1687611c4e9190612b9b565b611c589190612c0c565b611c629190612b9b565b611c6c9190612c0c565b611c769190612373565b90508094505050505092915050565b6040518060800160405280600081526020016000815260200160008152602001600060ff1681525090565b600080fd5b600073ffffffffffffffffffffffffffffffffffffffff82169050919050565b6000611ce082611cb5565b9050919050565b611cf081611cd5565b8114611cfb57600080fd5b50565b600081359050611d0d81611ce7565b92915050565b600060208284031215611d2957611d28611cb0565b5b6000611d3784828501611cfe565b91505092915050565b6000819050919050565b611d5381611d40565b82525050565b6000602082019050611d6e6000830184611d4a565b92915050565b600081519050919050565b600082825260208201905092915050565b6000819050602082019050919050565b600063ffffffff82169050919050565b611db981611da0565b82525050565b6000611dcb8383611db0565b60208301905092915050565b6000602082019050919050565b6000611def82611d74565b611df98185611d7f565b9350611e0483611d90565b8060005b83811015611e35578151611e1c8882611dbf565b9750611e2783611dd7565b925050600181019050611e08565b5085935050505092915050565b60006020820190508181036000830152611e5c8184611de4565b905092915050565b611e6d81611d40565b8114611e7857600080fd5b50565b600081359050611e8a81611e64565b92915050565b600060ff82169050919050565b611ea681611e90565b8114611eb157600080fd5b50565b600081359050611ec381611e9d565b92915050565b60008060408385031215611ee057611edf611cb0565b5b6000611eee85828601611e7b565b9250506020611eff85828601611eb4565b9150509250929050565b600060208284031215611f1f57611f1e611cb0565b5b6000611f2d84828501611e7b565b91505092915050565b600081519050919050565b600082825260208201905092915050565b6000819050602082019050919050565b611f6b81611e90565b82525050565b6000611f7d8383611f62565b60208301905092915050565b6000602082019050919050565b6000611fa182611f36565b611fab8185611f41565b9350611fb683611f52565b8060005b83811015611fe7578151611fce8882611f71565b9750611fd983611f89565b925050600181019050611fba565b5085935050505092915050565b60006060820190506120096000830186611d4a565b6120166020830185611d4a565b81810360408301526120288184611f96565b9050949350505050565b61203b81611e90565b82525050565b60008115159050919050565b61205681612041565b82525050565b600060a0820190506120716000830188611d4a565b61207e6020830187611d4a565b61208b6040830186611d4a565b6120986060830185612032565b6120a5608083018461204d565b9695505050505050565b60006020820190506120c4600083018461204d565b92915050565b6120d381611da0565b81146120de57600080fd5b50565b6000813590506120f0816120ca565b92915050565b6000806040838503121561210d5761210c611cb0565b5b600061211b85828601611eb4565b925050602061212c858286016120e1565b9150509250929050565b6000806040838503121561214d5761214c611cb0565b5b600061215b85828601611cfe565b925050602061216c85828601611e7b565b9150509250929050565b600060808201905061218b6000830187611d4a565b6121986020830186611d4a565b6121a56040830185611d4a565b6121b26060830184612032565b95945050505050565b600081519050919050565b600082825260208201905092915050565b6000819050602082019050919050565b6121f081611d40565b82525050565b600061220283836121e7565b60208301905092915050565b6000602082019050919050565b6000612226826121bb565b61223081856121c6565b935061223b836121d7565b8060005b8381101561226c57815161225388826121f6565b975061225e8361220e565b92505060018101905061223f565b5085935050505092915050565b60006020820190508181036000830152612293818461221b565b905092915050565b6000819050919050565b60006122c06122bb6122b684611cb5565b61229b565b611cb5565b9050919050565b60006122d2826122a5565b9050919050565b60006122e4826122c7565b9050919050565b6122f4816122d9565b82525050565b600060208201905061230f60008301846122eb565b92915050565b7f4e487b7100000000000000000000000000000000000000000000000000000000600052603260045260246000fd5b7f4e487b7100000000000000000000000000000000000000000000000000000000600052601160045260246000fd5b600061237e82611d40565b915061238983611d40565b92508282019050808211156123a1576123a0612344565b5b92915050565b600082825260208201905092915050565b7f506c6561736520656e74657220616d6f756e742067726561746572207468616e60008201527f207a65726f2e0000000000000000000000000000000000000000000000000000602082015250565b60006124146026836123a7565b915061241f826123b8565b604082019050919050565b6000602082019050818103600083015261244381612407565b9050919050565b61245381611cd5565b82525050565b600060608201905061246e600083018661244a565b61247b602083018561244a565b6124886040830184611d4a565b949350505050565b61249981612041565b81146124a457600080fd5b50565b6000815190506124b681612490565b92915050565b6000602082840312156124d2576124d1611cb0565b5b60006124e0848285016124a7565b91505092915050565b7f4572726f72206f63637572726564207768696c65207374616b696e672e28457260008201527f726f72436f64653a203030322920436f6e746163742061646d696e697374726160208201527f746f722e00000000000000000000000000000000000000000000000000000000604082015250565b600061256b6044836123a7565b9150612576826124e9565b606082019050919050565b6000602082019050818103600083015261259a8161255e565b9050919050565b7f526571756972656420616d6f756e74206973206e6f7420617661696c61626c6560008201527f20666f72207769746864726177616c2e00000000000000000000000000000000602082015250565b60006125fd6030836123a7565b9150612608826125a1565b604082019050919050565b6000602082019050818103600083015261262c816125f0565b9050919050565b600061263e82611d40565b915061264983611d40565b925082820390508181111561266157612660612344565b5b92915050565b7f4572726f72206f63637572726564207768696c65207769746864726177696e6760008201527f2e284572726f72436f64653a203030312920436f6e746163742061646d696e6960208201527f73747261746f722e000000000000000000000000000000000000000000000000604082015250565b60006126e96048836123a7565b91506126f482612667565b606082019050919050565b60006020820190508181036000830152612718816126dc565b9050919050565b6000604082019050612734600083018561244a565b6127416020830184611d4a565b9392505050565b7f4572726f72206f63637572726564207768696c65207769746864726177696e6760008201527f2e284572726f72436f64653a203030322920436f6e746163742061646d696e6960208201527f73747261746f722e000000000000000000000000000000000000000000000000604082015250565b60006127ca6048836123a7565b91506127d582612748565b606082019050919050565b600060208201905081810360008301526127f9816127bd565b9050919050565b7f4e487b7100000000000000000000000000000000000000000000000000000000600052604160045260246000fd5b7f4f6e6c792041646d696e696e73747261746f72284465706c6f7965722920636160008201527f6e20646f2074686973206f7065726174696f6e2e000000000000000000000000602082015250565b600061288b6034836123a7565b91506128968261282f565b604082019050919050565b600060208201905081810360008301526128ba8161287e565b9050919050565b7f4e6f7420656e6f7567682072657761726420746f20636c61696d2e0000000000600082015250565b60006128f7601b836123a7565b9150612902826128c1565b602082019050919050565b60006020820190508181036000830152612926816128ea565b9050919050565b7f4572726f72206f63637572726564207768696c6520636c61696d696e672e284560008201527f72726f72436f64653a203030332920436f6e746163742061646d696e6973747260208201527f61746f722e000000000000000000000000000000000000000000000000000000604082015250565b60006129af6045836123a7565b91506129ba8261292d565b606082019050919050565b600060208201905081810360008301526129de816129a2565b9050919050565b7f436c61696d20616e64207769746864726177616c206973206e6f74206176616960008201527f6c61626c6520617420746865206d6f6d656e742e000000000000000000000000602082015250565b6000612a416034836123a7565b9150612a4c826129e5565b604082019050919050565b60006020820190508181036000830152612a7081612a34565b9050919050565b7f4e6f7468696e6720746f207769746864726177206f7220636c61696d2e000000600082015250565b6000612aad601d836123a7565b9150612ab882612a77565b602082019050919050565b60006020820190508181036000830152612adc81612aa0565b9050919050565b7f4572726f72206f63637572726564207768696c652077697468726177696e672060008201527f616e6420636c61696d696e672e284572726f72436f64653a203030332920436f60208201527f6e746163742061646d696e6973747261746f722e000000000000000000000000604082015250565b6000612b656054836123a7565b9150612b7082612ae3565b606082019050919050565b60006020820190508181036000830152612b9481612b58565b9050919050565b6000612ba682611d40565b9150612bb183611d40565b9250828202612bbf81611d40565b91508282048414831517612bd657612bd5612344565b5b5092915050565b7f4e487b7100000000000000000000000000000000000000000000000000000000600052601260045260246000fd5b6000612c1782611d40565b9150612c2283611d40565b925082612c3257612c31612bdd565b5b82820490509291505056fea2646970667358221220ec7d72e769175827de44042b216e66725dceb090b5581278d3cee17a3f09627764736f6c63430008180033",
  "linkReferences": {},
  "deployedLinkReferences": {}
}