{
  "_format": "hh-sol-artifact-1",
  "contractName": "StakingContract",
  "sourceName": "contracts/StakingContract.sol",
  "abi": [
    {
      "inputs": [
        {
          "internalType": "address",
          "name": "stakingToken",
          "type": "address"
        }
      ],
      "stateMutability": "nonpayable",
      "type": "constructor"
    },
    {
      "inputs": [],
      "name": "CommunityTax__TooHigh",
      "type": "error"
    },
    {
      "inputs": [],
      "name": "InflationRate__TooHigh",
      "type": "error"
    },
    {
      "inputs": [],
      "name": "Only__Owner",
      "type": "error"
    },
    {
      "inputs": [],
      "name": "ReentrancyGuardReentrantCall",
      "type": "error"
    },
    {
      "inputs": [],
      "name": "Staking__NeedsMoreThanZero",
      "type": "error"
    },
    {
      "inputs": [],
      "name": "Staking__TransferFailed",
      "type": "error"
    },
    {
      "inputs": [],
      "name": "WithdrawFailed__InsufficientSupply",
      "type": "error"
    },
    {
      "inputs": [],
      "name": "Withdraw__TransferFailed",
      "type": "error"
    },
    {
      "inputs": [],
      "name": "claimReward",
      "outputs": [],
      "stateMutability": "nonpayable",
      "type": "function"
    },
    {
      "inputs": [],
      "name": "deployer",
      "outputs": [
        {
          "internalType": "address",
          "name": "",
          "type": "address"
        }
      ],
      "stateMutability": "view",
      "type": "function"
    },
    {
      "inputs": [
        {
          "internalType": "address",
          "name": "account",
          "type": "address"
        }
      ],
      "name": "earned",
      "outputs": [
        {
          "internalType": "uint256",
          "name": "",
          "type": "uint256"
        }
      ],
      "stateMutability": "view",
      "type": "function"
    },
    {
      "inputs": [
        {
          "internalType": "uint256",
          "name": "balance",
          "type": "uint256"
        }
      ],
      "name": "getAPR",
      "outputs": [
        {
          "internalType": "uint256",
          "name": "",
          "type": "uint256"
        }
      ],
      "stateMutability": "view",
      "type": "function"
    },
    {
      "inputs": [
        {
          "internalType": "uint256",
          "name": "balance",
          "type": "uint256"
        }
      ],
      "name": "getAPY",
      "outputs": [
        {
          "internalType": "uint256",
          "name": "",
          "type": "uint256"
        }
      ],
      "stateMutability": "view",
      "type": "function"
    },
    {
      "inputs": [
        {
          "internalType": "address",
          "name": "account",
          "type": "address"
        }
      ],
      "name": "getClaimed",
      "outputs": [
        {
          "internalType": "uint256",
          "name": "",
          "type": "uint256"
        }
      ],
      "stateMutability": "view",
      "type": "function"
    },
    {
      "inputs": [],
      "name": "getCommunityTax",
      "outputs": [
        {
          "internalType": "uint8",
          "name": "",
          "type": "uint8"
        }
      ],
      "stateMutability": "view",
      "type": "function"
    },
    {
      "inputs": [],
      "name": "getInflationRate",
      "outputs": [
        {
          "internalType": "uint8",
          "name": "",
          "type": "uint8"
        }
      ],
      "stateMutability": "view",
      "type": "function"
    },
    {
      "inputs": [
        {
          "internalType": "address",
          "name": "account",
          "type": "address"
        }
      ],
      "name": "getStaked",
      "outputs": [
        {
          "internalType": "uint256",
          "name": "",
          "type": "uint256"
        }
      ],
      "stateMutability": "view",
      "type": "function"
    },
    {
      "inputs": [],
      "name": "isOwner",
      "outputs": [
        {
          "internalType": "bool",
          "name": "",
          "type": "bool"
        }
      ],
      "stateMutability": "view",
      "type": "function"
    },
    {
      "inputs": [
        {
          "internalType": "address",
          "name": "",
          "type": "address"
        }
      ],
      "name": "s_balances",
      "outputs": [
        {
          "internalType": "uint256",
          "name": "",
          "type": "uint256"
        }
      ],
      "stateMutability": "view",
      "type": "function"
    },
    {
      "inputs": [
        {
          "internalType": "address",
          "name": "",
          "type": "address"
        }
      ],
      "name": "s_claimed",
      "outputs": [
        {
          "internalType": "uint256",
          "name": "",
          "type": "uint256"
        }
      ],
      "stateMutability": "view",
      "type": "function"
    },
    {
      "inputs": [],
      "name": "s_community_tax",
      "outputs": [
        {
          "internalType": "uint8",
          "name": "",
          "type": "uint8"
        }
      ],
      "stateMutability": "view",
      "type": "function"
    },
    {
      "inputs": [],
      "name": "s_inflation_rate",
      "outputs": [
        {
          "internalType": "uint8",
          "name": "",
          "type": "uint8"
        }
      ],
      "stateMutability": "view",
      "type": "function"
    },
    {
      "inputs": [],
      "name": "s_lastUpdateTime",
      "outputs": [
        {
          "internalType": "uint256",
          "name": "",
          "type": "uint256"
        }
      ],
      "stateMutability": "view",
      "type": "function"
    },
    {
      "inputs": [
        {
          "internalType": "address",
          "name": "",
          "type": "address"
        }
      ],
      "name": "s_rewards",
      "outputs": [
        {
          "internalType": "uint256",
          "name": "",
          "type": "uint256"
        }
      ],
      "stateMutability": "view",
      "type": "function"
    },
    {
      "inputs": [],
      "name": "s_stakingToken",
      "outputs": [
        {
          "internalType": "contract UIBT",
          "name": "",
          "type": "address"
        }
      ],
      "stateMutability": "view",
      "type": "function"
    },
    {
      "inputs": [],
      "name": "s_totalSupply",
      "outputs": [
        {
          "internalType": "uint256",
          "name": "",
          "type": "uint256"
        }
      ],
      "stateMutability": "view",
      "type": "function"
    },
    {
      "inputs": [
        {
          "internalType": "uint8",
          "name": "tax",
          "type": "uint8"
        }
      ],
      "name": "setCommunityTax",
      "outputs": [],
      "stateMutability": "nonpayable",
      "type": "function"
    },
    {
      "inputs": [
        {
          "internalType": "uint8",
          "name": "rate",
          "type": "uint8"
        }
      ],
      "name": "setInflationRate",
      "outputs": [],
      "stateMutability": "nonpayable",
      "type": "function"
    },
    {
      "inputs": [
        {
          "internalType": "uint256",
          "name": "amount",
          "type": "uint256"
        }
      ],
      "name": "stake",
      "outputs": [],
      "stateMutability": "nonpayable",
      "type": "function"
    },
    {
      "inputs": [
        {
          "internalType": "uint256",
          "name": "amount",
          "type": "uint256"
        }
      ],
      "name": "withdraw",
      "outputs": [],
      "stateMutability": "nonpayable",
      "type": "function"
    }
  ],
  "bytecode": "0x60806040526005600460006101000a81548160ff021916908360ff1602179055506002600460016101000a81548160ff021916908360ff1602179055503480156200004957600080fd5b50604051620016613803806200166183398181016040528101906200006f919062000171565b600160008190555080600160006101000a81548173ffffffffffffffffffffffffffffffffffffffff021916908373ffffffffffffffffffffffffffffffffffffffff16021790555033600460026101000a81548173ffffffffffffffffffffffffffffffffffffffff021916908373ffffffffffffffffffffffffffffffffffffffff1602179055504260038190555050620001a3565b600080fd5b600073ffffffffffffffffffffffffffffffffffffffff82169050919050565b600062000139826200010c565b9050919050565b6200014b816200012c565b81146200015757600080fd5b50565b6000815190506200016b8162000140565b92915050565b6000602082840312156200018a576200018962000107565b5b60006200019a848285016200015a565b91505092915050565b6114ae80620001b36000396000f3fe608060405234801561001057600080fd5b50600436106101415760003560e01c8063819df2c4116100b8578063b88a802f1161007c578063b88a802f14610378578063bea0815114610382578063d5f39488146103b2578063e85f3454146103d0578063eb46260e146103ee578063eeee849b1461041e57610141565b8063819df2c4146102d25780638f32d59b146102f0578063a694fc3a1461030e578063ab32eb691461032a578063adca9b721461035a57610141565b80632e1a7d4d1161010a5780632e1a7d4d146101fc578063399080ec1461021857806357627259146102485780636a74a0fc146102665780636aa0838f1461028457806374b3c7ec146102a257610141565b80628cc262146101465780630c9e58d5146101765780631bff5220146101925780631fc03812146101b057806322420c6f146101e0575b600080fd5b610160600480360381019061015b919061102d565b61044e565b60405161016d9190611073565b60405180910390f35b610190600480360381019061018b91906110c7565b610527565b005b61019a61060a565b6040516101a79190611103565b60405180910390f35b6101ca60048036038101906101c5919061114a565b61061d565b6040516101d79190611073565b60405180910390f35b6101fa60048036038101906101f591906110c7565b610664565b005b6102166004803603810190610211919061114a565b610747565b005b610232600480360381019061022d919061102d565b610962565b60405161023f9190611073565b60405180910390f35b6102506109ab565b60405161025d9190611103565b60405180910390f35b61026e6109be565b60405161027b9190611073565b60405180910390f35b61028c6109c4565b6040516102999190611073565b60405180910390f35b6102bc60048036038101906102b7919061102d565b6109ca565b6040516102c99190611073565b60405180910390f35b6102da6109e2565b6040516102e79190611103565b60405180910390f35b6102f86109f9565b6040516103059190611192565b60405180910390f35b6103286004803603810190610323919061114a565b610a51565b005b610344600480360381019061033f919061102d565b610c32565b6040516103519190611073565b60405180910390f35b610362610c4a565b60405161036f919061120c565b60405180910390f35b610380610c70565b005b61039c6004803603810190610397919061102d565b610e3e565b6040516103a99190611073565b60405180910390f35b6103ba610e56565b6040516103c79190611236565b60405180910390f35b6103d8610e7c565b6040516103e59190611103565b60405180910390f35b6104086004803603810190610403919061102d565b610e93565b6040516104159190611073565b60405180910390f35b6104386004803603810190610433919061114a565b610edc565b6040516104459190611073565b60405180910390f35b600080600560008473ffffffffffffffffffffffffffffffffffffffff1673ffffffffffffffffffffffffffffffffffffffff1681526020019081526020016000205490506000600760008573ffffffffffffffffffffffffffffffffffffffff1673ffffffffffffffffffffffffffffffffffffffff16815260200190815260200160002054905060006104e283610edc565b90506000826301e13380600354426104fa9190611280565b8461050591906112b4565b61050f9190611325565b6105199190611356565b905080945050505050919050565b3373ffffffffffffffffffffffffffffffffffffffff16600460029054906101000a900473ffffffffffffffffffffffffffffffffffffffff1673ffffffffffffffffffffffffffffffffffffffff16146105ae576040517fc466007c00000000000000000000000000000000000000000000000000000000815260040160405180910390fd5b600a8160ff1611156105ec576040517f2b020ec600000000000000000000000000000000000000000000000000000000815260040160405180910390fd5b80600460016101000a81548160ff021916908360ff16021790555050565b600460009054906101000a900460ff1681565b600080820361062f576000905061065f565b600061063a83610edc565b90506000836127108361064d91906112b4565b6106579190611325565b905080925050505b919050565b3373ffffffffffffffffffffffffffffffffffffffff16600460029054906101000a900473ffffffffffffffffffffffffffffffffffffffff1673ffffffffffffffffffffffffffffffffffffffff16146106eb576040517fc466007c00000000000000000000000000000000000000000000000000000000815260040160405180910390fd5b60148160ff161115610729576040517f55c62cbb00000000000000000000000000000000000000000000000000000000815260040160405180910390fd5b80600460006101000a81548160ff021916908360ff16021790555050565b336107518161044e565b600760008373ffffffffffffffffffffffffffffffffffffffff1673ffffffffffffffffffffffffffffffffffffffff168152602001908152602001600020819055504260038190555081600081036107d6576040517f9b677fa000000000000000000000000000000000000000000000000000000000815260040160405180910390fd5b826002541015610812576040517f7dfa97d100000000000000000000000000000000000000000000000000000000815260040160405180910390fd5b82600560003373ffffffffffffffffffffffffffffffffffffffff1673ffffffffffffffffffffffffffffffffffffffff16815260200190815260200160002060008282546108619190611280565b92505081905550826002600082825461087a9190611280565b925050819055506000600160009054906101000a900473ffffffffffffffffffffffffffffffffffffffff1673ffffffffffffffffffffffffffffffffffffffff1663a9059cbb33866040518363ffffffff1660e01b81526004016108e092919061138a565b6020604051808303816000875af11580156108ff573d6000803e3d6000fd5b505050506040513d601f19601f8201168201806040525081019061092391906113df565b90508061095c576040517f8ecca7d100000000000000000000000000000000000000000000000000000000815260040160405180910390fd5b50505050565b6000600560008373ffffffffffffffffffffffffffffffffffffffff1673ffffffffffffffffffffffffffffffffffffffff168152602001908152602001600020549050919050565b600460019054906101000a900460ff1681565b60025481565b60035481565b60066020528060005260406000206000915090505481565b6000600460009054906101000a900460ff16905090565b6000600460029054906101000a900473ffffffffffffffffffffffffffffffffffffffff1673ffffffffffffffffffffffffffffffffffffffff163373ffffffffffffffffffffffffffffffffffffffff1614905090565b33610a5b8161044e565b600760008373ffffffffffffffffffffffffffffffffffffffff1673ffffffffffffffffffffffffffffffffffffffff16815260200190815260200160002081905550426003819055508160008103610ae0576040517f9b677fa000000000000000000000000000000000000000000000000000000000815260040160405180910390fd5b82600560003373ffffffffffffffffffffffffffffffffffffffff1673ffffffffffffffffffffffffffffffffffffffff1681526020019081526020016000206000828254610b2f9190611356565b925050819055508260026000828254610b489190611356565b925050819055506000600160009054906101000a900473ffffffffffffffffffffffffffffffffffffffff1673ffffffffffffffffffffffffffffffffffffffff166323b872dd3330876040518463ffffffff1660e01b8152600401610bb09392919061140c565b6020604051808303816000875af1158015610bcf573d6000803e3d6000fd5b505050506040513d601f19601f82011682018060405250810190610bf391906113df565b905080610c2c576040517feb4c684700000000000000000000000000000000000000000000000000000000815260040160405180910390fd5b50505050565b60056020528060005260406000206000915090505481565b600160009054906101000a900473ffffffffffffffffffffffffffffffffffffffff1681565b33610c7a8161044e565b600760008373ffffffffffffffffffffffffffffffffffffffff1673ffffffffffffffffffffffffffffffffffffffff16815260200190815260200160002081905550426003819055506000600760003373ffffffffffffffffffffffffffffffffffffffff1673ffffffffffffffffffffffffffffffffffffffff1681526020019081526020016000205490506000600160009054906101000a900473ffffffffffffffffffffffffffffffffffffffff1673ffffffffffffffffffffffffffffffffffffffff1663a9059cbb33846040518363ffffffff1660e01b8152600401610d6792919061138a565b6020604051808303816000875af1158015610d86573d6000803e3d6000fd5b505050506040513d601f19601f82011682018060405250810190610daa91906113df565b905080610de3576040517feb4c684700000000000000000000000000000000000000000000000000000000815260040160405180910390fd5b81600660003373ffffffffffffffffffffffffffffffffffffffff1673ffffffffffffffffffffffffffffffffffffffff1681526020019081526020016000206000828254610e329190611356565b92505081905550505050565b60076020528060005260406000206000915090505481565b600460029054906101000a900473ffffffffffffffffffffffffffffffffffffffff1681565b6000600460019054906101000a900460ff16905090565b6000600660008373ffffffffffffffffffffffffffffffffffffffff1673ffffffffffffffffffffffffffffffffffffffff168152602001908152602001600020549050919050565b60008060025403610ef05760009050610fc5565b600060035442610f009190611280565b03610f0e5760009050610fc5565b60008203610f1f5760009050610fc5565b6000600254836064610f3191906112b4565b610f3b9190611325565b905060006064600460009054906101000a900460ff1660ff16600254610f6191906112b4565b610f6b9190611325565b905060006064836064600460019054906101000a900460ff166064610f909190611443565b60ff1685610f9e91906112b4565b610fa89190611325565b610fb291906112b4565b610fbc9190611325565b90508093505050505b919050565b600080fd5b600073ffffffffffffffffffffffffffffffffffffffff82169050919050565b6000610ffa82610fcf565b9050919050565b61100a81610fef565b811461101557600080fd5b50565b60008135905061102781611001565b92915050565b60006020828403121561104357611042610fca565b5b600061105184828501611018565b91505092915050565b6000819050919050565b61106d8161105a565b82525050565b60006020820190506110886000830184611064565b92915050565b600060ff82169050919050565b6110a48161108e565b81146110af57600080fd5b50565b6000813590506110c18161109b565b92915050565b6000602082840312156110dd576110dc610fca565b5b60006110eb848285016110b2565b91505092915050565b6110fd8161108e565b82525050565b600060208201905061111860008301846110f4565b92915050565b6111278161105a565b811461113257600080fd5b50565b6000813590506111448161111e565b92915050565b6000602082840312156111605761115f610fca565b5b600061116e84828501611135565b91505092915050565b60008115159050919050565b61118c81611177565b82525050565b60006020820190506111a76000830184611183565b92915050565b6000819050919050565b60006111d26111cd6111c884610fcf565b6111ad565b610fcf565b9050919050565b60006111e4826111b7565b9050919050565b60006111f6826111d9565b9050919050565b611206816111eb565b82525050565b600060208201905061122160008301846111fd565b92915050565b61123081610fef565b82525050565b600060208201905061124b6000830184611227565b92915050565b7f4e487b7100000000000000000000000000000000000000000000000000000000600052601160045260246000fd5b600061128b8261105a565b91506112968361105a565b92508282039050818111156112ae576112ad611251565b5b92915050565b60006112bf8261105a565b91506112ca8361105a565b92508282026112d88161105a565b915082820484148315176112ef576112ee611251565b5b5092915050565b7f4e487b7100000000000000000000000000000000000000000000000000000000600052601260045260246000fd5b60006113308261105a565b915061133b8361105a565b92508261134b5761134a6112f6565b5b828204905092915050565b60006113618261105a565b915061136c8361105a565b925082820190508082111561138457611383611251565b5b92915050565b600060408201905061139f6000830185611227565b6113ac6020830184611064565b9392505050565b6113bc81611177565b81146113c757600080fd5b50565b6000815190506113d9816113b3565b92915050565b6000602082840312156113f5576113f4610fca565b5b6000611403848285016113ca565b91505092915050565b60006060820190506114216000830186611227565b61142e6020830185611227565b61143b6040830184611064565b949350505050565b600061144e8261108e565b91506114598361108e565b9250828203905060ff81111561147257611471611251565b5b9291505056fea26469706673582212209c7f7adba55aa055cbd796d009bdcd7cf6151f2c169b354f6a2dd62b991a76e264736f6c63430008180033",
  "linkReferences": {},
  "deployedLinkReferences": {}
}