{
  "_format": "hh-sol-artifact-1",
  "contractName": "StakingRewards",
  "sourceName": "contracts/StakingRewards.sol",
  "abi": [
    {
      "inputs": [
        {
          "internalType": "address",
          "name": "_stakingToken",
          "type": "address"
        }
      ],
      "stateMutability": "nonpayable",
      "type": "constructor"
    },
    {
      "inputs": [],
      "name": "ReentrancyGuardReentrantCall",
      "type": "error"
    },
    {
      "inputs": [
        {
          "internalType": "address",
          "name": "",
          "type": "address"
        }
      ],
      "name": "balanceOf",
      "outputs": [
        {
          "internalType": "uint256",
          "name": "",
          "type": "uint256"
        }
      ],
      "stateMutability": "view",
      "type": "function"
    },
    {
      "inputs": [],
      "name": "duration",
      "outputs": [
        {
          "internalType": "uint256",
          "name": "",
          "type": "uint256"
        }
      ],
      "stateMutability": "view",
      "type": "function"
    },
    {
      "inputs": [
        {
          "internalType": "address",
          "name": "_account",
          "type": "address"
        }
      ],
      "name": "earned",
      "outputs": [
        {
          "internalType": "uint256",
          "name": "",
          "type": "uint256"
        }
      ],
      "stateMutability": "view",
      "type": "function"
    },
    {
      "inputs": [],
      "name": "finishAt",
      "outputs": [
        {
          "internalType": "uint256",
          "name": "",
          "type": "uint256"
        }
      ],
      "stateMutability": "view",
      "type": "function"
    },
    {
      "inputs": [],
      "name": "getReward",
      "outputs": [],
      "stateMutability": "nonpayable",
      "type": "function"
    },
    {
      "inputs": [],
      "name": "getRewardRate",
      "outputs": [
        {
          "internalType": "uint256",
          "name": "",
          "type": "uint256"
        }
      ],
      "stateMutability": "view",
      "type": "function"
    },
    {
      "inputs": [],
      "name": "getStaked",
      "outputs": [
        {
          "internalType": "uint256",
          "name": "",
          "type": "uint256"
        }
      ],
      "stateMutability": "view",
      "type": "function"
    },
    {
      "inputs": [],
      "name": "lastTimeRewardApplicable",
      "outputs": [
        {
          "internalType": "uint256",
          "name": "",
          "type": "uint256"
        }
      ],
      "stateMutability": "view",
      "type": "function"
    },
    {
      "inputs": [
        {
          "internalType": "uint256",
          "name": "_amount",
          "type": "uint256"
        }
      ],
      "name": "notifyRewardAmount",
      "outputs": [],
      "stateMutability": "nonpayable",
      "type": "function"
    },
    {
      "inputs": [],
      "name": "owner",
      "outputs": [
        {
          "internalType": "address",
          "name": "",
          "type": "address"
        }
      ],
      "stateMutability": "view",
      "type": "function"
    },
    {
      "inputs": [],
      "name": "rewardPerToken",
      "outputs": [
        {
          "internalType": "uint256",
          "name": "",
          "type": "uint256"
        }
      ],
      "stateMutability": "view",
      "type": "function"
    },
    {
      "inputs": [],
      "name": "rewardPerTokenStored",
      "outputs": [
        {
          "internalType": "uint256",
          "name": "",
          "type": "uint256"
        }
      ],
      "stateMutability": "view",
      "type": "function"
    },
    {
      "inputs": [],
      "name": "rewardRate",
      "outputs": [
        {
          "internalType": "uint256",
          "name": "",
          "type": "uint256"
        }
      ],
      "stateMutability": "view",
      "type": "function"
    },
    {
      "inputs": [
        {
          "internalType": "address",
          "name": "",
          "type": "address"
        }
      ],
      "name": "rewards",
      "outputs": [
        {
          "internalType": "uint256",
          "name": "",
          "type": "uint256"
        }
      ],
      "stateMutability": "view",
      "type": "function"
    },
    {
      "inputs": [
        {
          "internalType": "uint256",
          "name": "_duration",
          "type": "uint256"
        }
      ],
      "name": "setRewardsDuration",
      "outputs": [],
      "stateMutability": "nonpayable",
      "type": "function"
    },
    {
      "inputs": [
        {
          "internalType": "uint256",
          "name": "_amount",
          "type": "uint256"
        }
      ],
      "name": "stake",
      "outputs": [],
      "stateMutability": "nonpayable",
      "type": "function"
    },
    {
      "inputs": [],
      "name": "stakingToken",
      "outputs": [
        {
          "internalType": "contract IERC20",
          "name": "",
          "type": "address"
        }
      ],
      "stateMutability": "view",
      "type": "function"
    },
    {
      "inputs": [],
      "name": "totalSupply",
      "outputs": [
        {
          "internalType": "uint256",
          "name": "",
          "type": "uint256"
        }
      ],
      "stateMutability": "view",
      "type": "function"
    },
    {
      "inputs": [],
      "name": "updatedAt",
      "outputs": [
        {
          "internalType": "uint256",
          "name": "",
          "type": "uint256"
        }
      ],
      "stateMutability": "view",
      "type": "function"
    },
    {
      "inputs": [
        {
          "internalType": "address",
          "name": "",
          "type": "address"
        }
      ],
      "name": "userRewardPerTokenPaid",
      "outputs": [
        {
          "internalType": "uint256",
          "name": "",
          "type": "uint256"
        }
      ],
      "stateMutability": "view",
      "type": "function"
    },
    {
      "inputs": [
        {
          "internalType": "uint256",
          "name": "_amount",
          "type": "uint256"
        }
      ],
      "name": "withdraw",
      "outputs": [],
      "stateMutability": "nonpayable",
      "type": "function"
    }
  ],
  "bytecode": "0x60a06040523480156200001157600080fd5b506040516200191138038062001911833981810160405281019062000037919062000125565b600160008190555033600160006101000a81548173ffffffffffffffffffffffffffffffffffffffff021916908373ffffffffffffffffffffffffffffffffffffffff1602179055508073ffffffffffffffffffffffffffffffffffffffff1660808173ffffffffffffffffffffffffffffffffffffffff16815250505062000157565b600080fd5b600073ffffffffffffffffffffffffffffffffffffffff82169050919050565b6000620000ed82620000c0565b9050919050565b620000ff81620000e0565b81146200010b57600080fd5b50565b6000815190506200011f81620000f4565b92915050565b6000602082840312156200013e576200013d620000bb565b5b60006200014e848285016200010e565b91505092915050565b6080516117826200018f6000396000818161069b0152818161095a01528181610bda01528181610c9c0152610e5d01526117826000f3fe608060405234801561001057600080fd5b50600436106101365760003560e01c80637519ab50116100b85780638da5cb5b1161007c5780638da5cb5b1461032d578063a694fc3a1461034b578063c59abf9f14610367578063cc1a378f14610385578063cd3daf9d146103a1578063df136d65146103bf57610136565b80637519ab50146102855780637b0a47ee146102a35780637e1a3786146102c157806380faa57d146102df5780638b876347146102fd57610136565b80633c6b16ab116100ff5780633c6b16ab146101f35780633d18b9121461020f57806367d3b4881461021957806370a082311461023757806372f702f31461026757610136565b80628cc2621461013b5780630700037d1461016b5780630fb5a6b41461019b57806318160ddd146101b95780632e1a7d4d146101d7575b600080fd5b61015560048036038101906101509190611181565b6103dd565b60405161016291906111c7565b60405180910390f35b61018560048036038101906101809190611181565b6104df565b60405161019291906111c7565b60405180910390f35b6101a36104f7565b6040516101b091906111c7565b60405180910390f35b6101c16104fd565b6040516101ce91906111c7565b60405180910390f35b6101f160048036038101906101ec919061120e565b610503565b005b61020d6004803603810190610208919061120e565b61073c565b005b610217610a62565b005b610221610c7c565b60405161022e91906111c7565b60405180910390f35b610251600480360381019061024c9190611181565b610c82565b60405161025e91906111c7565b60405180910390f35b61026f610c9a565b60405161027c919061129a565b60405180910390f35b61028d610cbe565b60405161029a91906111c7565b60405180910390f35b6102ab610cc4565b6040516102b891906111c7565b60405180910390f35b6102c9610cca565b6040516102d691906111c7565b60405180910390f35b6102e7610ce3565b6040516102f491906111c7565b60405180910390f35b61031760048036038101906103129190611181565b610cf6565b60405161032491906111c7565b60405180910390f35b610335610d0e565b60405161034291906112c4565b60405180910390f35b6103656004803603810190610360919061120e565b610d34565b005b61036f610f6f565b60405161037c91906111c7565b60405180910390f35b61039f600480360381019061039a919061120e565b610fb6565b005b6103a9611094565b6040516103b691906111c7565b60405180910390f35b6103c76110fe565b6040516103d491906111c7565b60405180910390f35b6000600860008373ffffffffffffffffffffffffffffffffffffffff1673ffffffffffffffffffffffffffffffffffffffff16815260200190815260200160002054670de0b6b3a7640000600760008573ffffffffffffffffffffffffffffffffffffffff1673ffffffffffffffffffffffffffffffffffffffff16815260200190815260200160002054610470611094565b61047a919061130e565b600a60008673ffffffffffffffffffffffffffffffffffffffff1673ffffffffffffffffffffffffffffffffffffffff168152602001908152602001600020546104c49190611342565b6104ce91906113b3565b6104d891906113e4565b9050919050565b60086020528060005260406000206000915090505481565b60025481565b60095481565b3361050c611094565b60068190555061051a610ce3565b600481905550600073ffffffffffffffffffffffffffffffffffffffff168173ffffffffffffffffffffffffffffffffffffffff16146105e75761055d816103dd565b600860008373ffffffffffffffffffffffffffffffffffffffff1673ffffffffffffffffffffffffffffffffffffffff16815260200190815260200160002081905550600654600760008373ffffffffffffffffffffffffffffffffffffffff1673ffffffffffffffffffffffffffffffffffffffff168152602001908152602001600020819055505b6000821161062a576040517f08c379a000000000000000000000000000000000000000000000000000000000815260040161062190611475565b60405180910390fd5b81600a60003373ffffffffffffffffffffffffffffffffffffffff1673ffffffffffffffffffffffffffffffffffffffff1681526020019081526020016000206000828254610679919061130e565b925050819055508160096000828254610692919061130e565b925050819055507f000000000000000000000000000000000000000000000000000000000000000073ffffffffffffffffffffffffffffffffffffffff1663a9059cbb33846040518363ffffffff1660e01b81526004016106f4929190611495565b6020604051808303816000875af1158015610713573d6000803e3d6000fd5b505050506040513d601f19601f8201168201806040525081019061073791906114f6565b505050565b600160009054906101000a900473ffffffffffffffffffffffffffffffffffffffff1673ffffffffffffffffffffffffffffffffffffffff163373ffffffffffffffffffffffffffffffffffffffff16146107cc576040517f08c379a00000000000000000000000000000000000000000000000000000000081526004016107c39061156f565b60405180910390fd5b60006107d6611094565b6006819055506107e4610ce3565b600481905550600073ffffffffffffffffffffffffffffffffffffffff168173ffffffffffffffffffffffffffffffffffffffff16146108b157610827816103dd565b600860008373ffffffffffffffffffffffffffffffffffffffff1673ffffffffffffffffffffffffffffffffffffffff16815260200190815260200160002081905550600654600760008373ffffffffffffffffffffffffffffffffffffffff1673ffffffffffffffffffffffffffffffffffffffff168152602001908152602001600020819055505b60035442106108d357600254826108c891906113b3565b600581905550610913565b6000600554426003546108e6919061130e565b6108f09190611342565b9050600254818461090191906113e4565b61090b91906113b3565b600581905550505b600060055411610958576040517f08c379a000000000000000000000000000000000000000000000000000000000815260040161094f906115db565b60405180910390fd5b7f000000000000000000000000000000000000000000000000000000000000000073ffffffffffffffffffffffffffffffffffffffff166370a08231306040518263ffffffff1660e01b81526004016109b191906112c4565b602060405180830381865afa1580156109ce573d6000803e3d6000fd5b505050506040513d601f19601f820116820180604052508101906109f29190611610565b600254600554610a029190611342565b1115610a43576040517f08c379a0000000000000000000000000000000000000000000000000000000008152600401610a3a90611689565b60405180910390fd5b60025442610a5191906113e4565b600381905550426004819055505050565b33610a6b611094565b600681905550610a79610ce3565b600481905550600073ffffffffffffffffffffffffffffffffffffffff168173ffffffffffffffffffffffffffffffffffffffff1614610b4657610abc816103dd565b600860008373ffffffffffffffffffffffffffffffffffffffff1673ffffffffffffffffffffffffffffffffffffffff16815260200190815260200160002081905550600654600760008373ffffffffffffffffffffffffffffffffffffffff1673ffffffffffffffffffffffffffffffffffffffff168152602001908152602001600020819055505b6000600860003373ffffffffffffffffffffffffffffffffffffffff1673ffffffffffffffffffffffffffffffffffffffff1681526020019081526020016000205490506000811115610c78576000600860003373ffffffffffffffffffffffffffffffffffffffff1673ffffffffffffffffffffffffffffffffffffffff168152602001908152602001600020819055507f000000000000000000000000000000000000000000000000000000000000000073ffffffffffffffffffffffffffffffffffffffff1663a9059cbb33836040518363ffffffff1660e01b8152600401610c33929190611495565b6020604051808303816000875af1158015610c52573d6000803e3d6000fd5b505050506040513d601f19601f82011682018060405250810190610c7691906114f6565b505b5050565b60035481565b600a6020528060005260406000206000915090505481565b7f000000000000000000000000000000000000000000000000000000000000000081565b60045481565b60055481565b60006301e13380600554610cde9190611342565b905090565b6000610cf160035442611104565b905090565b60076020528060005260406000206000915090505481565b600160009054906101000a900473ffffffffffffffffffffffffffffffffffffffff1681565b33610d3d611094565b600681905550610d4b610ce3565b600481905550600073ffffffffffffffffffffffffffffffffffffffff168173ffffffffffffffffffffffffffffffffffffffff1614610e1857610d8e816103dd565b600860008373ffffffffffffffffffffffffffffffffffffffff1673ffffffffffffffffffffffffffffffffffffffff16815260200190815260200160002081905550600654600760008373ffffffffffffffffffffffffffffffffffffffff1673ffffffffffffffffffffffffffffffffffffffff168152602001908152602001600020819055505b60008211610e5b576040517f08c379a0000000000000000000000000000000000000000000000000000000008152600401610e5290611475565b60405180910390fd5b7f000000000000000000000000000000000000000000000000000000000000000073ffffffffffffffffffffffffffffffffffffffff166323b872dd3330856040518463ffffffff1660e01b8152600401610eb8939291906116a9565b6020604051808303816000875af1158015610ed7573d6000803e3d6000fd5b505050506040513d601f19601f82011682018060405250810190610efb91906114f6565b5081600a60003373ffffffffffffffffffffffffffffffffffffffff1673ffffffffffffffffffffffffffffffffffffffff1681526020019081526020016000206000828254610f4b91906113e4565b925050819055508160096000828254610f6491906113e4565b925050819055505050565b6000600a60003373ffffffffffffffffffffffffffffffffffffffff1673ffffffffffffffffffffffffffffffffffffffff16815260200190815260200160002054905090565b600160009054906101000a900473ffffffffffffffffffffffffffffffffffffffff1673ffffffffffffffffffffffffffffffffffffffff163373ffffffffffffffffffffffffffffffffffffffff1614611046576040517f08c379a000000000000000000000000000000000000000000000000000000000815260040161103d9061156f565b60405180910390fd5b426003541061108a576040517f08c379a00000000000000000000000000000000000000000000000000000000081526004016110819061172c565b60405180910390fd5b8060028190555050565b600080600954036110a95760065490506110fb565b600954670de0b6b3a76400006004546110c0610ce3565b6110ca919061130e565b6005546110d79190611342565b6110e19190611342565b6110eb91906113b3565b6006546110f891906113e4565b90505b90565b60065481565b6000818311156111145781611116565b825b905092915050565b600080fd5b600073ffffffffffffffffffffffffffffffffffffffff82169050919050565b600061114e82611123565b9050919050565b61115e81611143565b811461116957600080fd5b50565b60008135905061117b81611155565b92915050565b6000602082840312156111975761119661111e565b5b60006111a58482850161116c565b91505092915050565b6000819050919050565b6111c1816111ae565b82525050565b60006020820190506111dc60008301846111b8565b92915050565b6111eb816111ae565b81146111f657600080fd5b50565b600081359050611208816111e2565b92915050565b6000602082840312156112245761122361111e565b5b6000611232848285016111f9565b91505092915050565b6000819050919050565b600061126061125b61125684611123565b61123b565b611123565b9050919050565b600061127282611245565b9050919050565b600061128482611267565b9050919050565b61129481611279565b82525050565b60006020820190506112af600083018461128b565b92915050565b6112be81611143565b82525050565b60006020820190506112d960008301846112b5565b92915050565b7f4e487b7100000000000000000000000000000000000000000000000000000000600052601160045260246000fd5b6000611319826111ae565b9150611324836111ae565b925082820390508181111561133c5761133b6112df565b5b92915050565b600061134d826111ae565b9150611358836111ae565b9250828202611366816111ae565b9150828204841483151761137d5761137c6112df565b5b5092915050565b7f4e487b7100000000000000000000000000000000000000000000000000000000600052601260045260246000fd5b60006113be826111ae565b91506113c9836111ae565b9250826113d9576113d8611384565b5b828204905092915050565b60006113ef826111ae565b91506113fa836111ae565b9250828201905080821115611412576114116112df565b5b92915050565b600082825260208201905092915050565b7f616d6f756e74203d203000000000000000000000000000000000000000000000600082015250565b600061145f600a83611418565b915061146a82611429565b602082019050919050565b6000602082019050818103600083015261148e81611452565b9050919050565b60006040820190506114aa60008301856112b5565b6114b760208301846111b8565b9392505050565b60008115159050919050565b6114d3816114be565b81146114de57600080fd5b50565b6000815190506114f0816114ca565b92915050565b60006020828403121561150c5761150b61111e565b5b600061151a848285016114e1565b91505092915050565b7f6e6f7420617574686f72697a6564000000000000000000000000000000000000600082015250565b6000611559600e83611418565b915061156482611523565b602082019050919050565b600060208201905081810360008301526115888161154c565b9050919050565b7f7265776172642072617465203d20300000000000000000000000000000000000600082015250565b60006115c5600f83611418565b91506115d08261158f565b602082019050919050565b600060208201905081810360008301526115f4816115b8565b9050919050565b60008151905061160a816111e2565b92915050565b6000602082840312156116265761162561111e565b5b6000611634848285016115fb565b91505092915050565b7f72657761726420616d6f756e74203e2062616c616e6365000000000000000000600082015250565b6000611673601783611418565b915061167e8261163d565b602082019050919050565b600060208201905081810360008301526116a281611666565b9050919050565b60006060820190506116be60008301866112b5565b6116cb60208301856112b5565b6116d860408301846111b8565b949350505050565b7f726577617264206475726174696f6e206e6f742066696e697368656400000000600082015250565b6000611716601c83611418565b9150611721826116e0565b602082019050919050565b6000602082019050818103600083015261174581611709565b905091905056fea2646970667358221220520636d4f8d5c5f96dcecd64c809e4cea594417d97ecb3d1fb91da156f9990b764736f6c63430008180033",
  "linkReferences": {},
  "deployedLinkReferences": {}
}