{
    "_format": "hh-sol-artifact-1",
    "contractName": "StakingContract",
    "sourceName": "contracts/StakingContract.sol",
    "abi": [
        {
            "inputs": [
                {
                    "internalType": "address",
                    "name": "stakingToken",
                    "type": "address"
                }
            ],
            "stateMutability": "nonpayable",
            "type": "constructor"
        },
        {
            "inputs": [],
            "name": "CommunityTax__TooHigh",
            "type": "error"
        },
        {
            "inputs": [],
            "name": "InflationRate__TooHigh",
            "type": "error"
        },
        {
            "inputs": [],
            "name": "Only__Owner",
            "type": "error"
        },
        {
            "inputs": [],
            "name": "ReentrancyGuardReentrantCall",
            "type": "error"
        },
        {
            "inputs": [],
            "name": "Staking__NeedsMoreThanZero",
            "type": "error"
        },
        {
            "inputs": [],
            "name": "Staking__TransferFailed",
            "type": "error"
        },
        {
            "inputs": [],
            "name": "Withdraw__TransferFailed",
            "type": "error"
        },
        {
            "inputs": [],
            "name": "claimReward",
            "outputs": [],
            "stateMutability": "nonpayable",
            "type": "function"
        },
        {
            "inputs": [],
            "name": "deployer",
            "outputs": [
                {
                    "internalType": "address",
                    "name": "",
                    "type": "address"
                }
            ],
            "stateMutability": "view",
            "type": "function"
        },
        {
            "inputs": [
                {
                    "internalType": "address",
                    "name": "account",
                    "type": "address"
                }
            ],
            "name": "earned",
            "outputs": [
                {
                    "internalType": "uint256",
                    "name": "",
                    "type": "uint256"
                }
            ],
            "stateMutability": "view",
            "type": "function"
        },
        {
            "inputs": [
                {
                    "internalType": "uint256",
                    "name": "balance",
                    "type": "uint256"
                }
            ],
            "name": "getAPR",
            "outputs": [
                {
                    "internalType": "uint256",
                    "name": "",
                    "type": "uint256"
                }
            ],
            "stateMutability": "view",
            "type": "function"
        },
        {
            "inputs": [
                {
                    "internalType": "uint256",
                    "name": "balance",
                    "type": "uint256"
                }
            ],
            "name": "getAPY",
            "outputs": [
                {
                    "internalType": "uint256",
                    "name": "",
                    "type": "uint256"
                }
            ],
            "stateMutability": "view",
            "type": "function"
        },
        {
            "inputs": [
                {
                    "internalType": "address",
                    "name": "account",
                    "type": "address"
                }
            ],
            "name": "getClaimed",
            "outputs": [
                {
                    "internalType": "uint256",
                    "name": "",
                    "type": "uint256"
                }
            ],
            "stateMutability": "view",
            "type": "function"
        },
        {
            "inputs": [],
            "name": "getCommunityTax",
            "outputs": [
                {
                    "internalType": "uint8",
                    "name": "",
                    "type": "uint8"
                }
            ],
            "stateMutability": "view",
            "type": "function"
        },
        {
            "inputs": [],
            "name": "getInflationRate",
            "outputs": [
                {
                    "internalType": "uint8",
                    "name": "",
                    "type": "uint8"
                }
            ],
            "stateMutability": "view",
            "type": "function"
        },
        {
            "inputs": [
                {
                    "internalType": "address",
                    "name": "account",
                    "type": "address"
                }
            ],
            "name": "getStaked",
            "outputs": [
                {
                    "internalType": "uint256",
                    "name": "",
                    "type": "uint256"
                }
            ],
            "stateMutability": "view",
            "type": "function"
        },
        {
            "inputs": [],
            "name": "isOwner",
            "outputs": [
                {
                    "internalType": "bool",
                    "name": "",
                    "type": "bool"
                }
            ],
            "stateMutability": "view",
            "type": "function"
        },
        {
            "inputs": [
                {
                    "internalType": "address",
                    "name": "",
                    "type": "address"
                }
            ],
            "name": "s_balances",
            "outputs": [
                {
                    "internalType": "uint256",
                    "name": "",
                    "type": "uint256"
                }
            ],
            "stateMutability": "view",
            "type": "function"
        },
        {
            "inputs": [
                {
                    "internalType": "address",
                    "name": "",
                    "type": "address"
                }
            ],
            "name": "s_claimed",
            "outputs": [
                {
                    "internalType": "uint256",
                    "name": "",
                    "type": "uint256"
                }
            ],
            "stateMutability": "view",
            "type": "function"
        },
        {
            "inputs": [],
            "name": "s_community_tax",
            "outputs": [
                {
                    "internalType": "uint8",
                    "name": "",
                    "type": "uint8"
                }
            ],
            "stateMutability": "view",
            "type": "function"
        },
        {
            "inputs": [],
            "name": "s_inflation_rate",
            "outputs": [
                {
                    "internalType": "uint8",
                    "name": "",
                    "type": "uint8"
                }
            ],
            "stateMutability": "view",
            "type": "function"
        },
        {
            "inputs": [],
            "name": "s_lastUpdateTime",
            "outputs": [
                {
                    "internalType": "uint256",
                    "name": "",
                    "type": "uint256"
                }
            ],
            "stateMutability": "view",
            "type": "function"
        },
        {
            "inputs": [
                {
                    "internalType": "address",
                    "name": "",
                    "type": "address"
                }
            ],
            "name": "s_rewards",
            "outputs": [
                {
                    "internalType": "uint256",
                    "name": "",
                    "type": "uint256"
                }
            ],
            "stateMutability": "view",
            "type": "function"
        },
        {
            "inputs": [],
            "name": "s_stakingToken",
            "outputs": [
                {
                    "internalType": "contract UIBT",
                    "name": "",
                    "type": "address"
                }
            ],
            "stateMutability": "view",
            "type": "function"
        },
        {
            "inputs": [],
            "name": "s_totalSupply",
            "outputs": [
                {
                    "internalType": "uint256",
                    "name": "",
                    "type": "uint256"
                }
            ],
            "stateMutability": "view",
            "type": "function"
        },
        {
            "inputs": [
                {
                    "internalType": "uint8",
                    "name": "tax",
                    "type": "uint8"
                }
            ],
            "name": "setCommunityTax",
            "outputs": [],
            "stateMutability": "nonpayable",
            "type": "function"
        },
        {
            "inputs": [
                {
                    "internalType": "uint8",
                    "name": "rate",
                    "type": "uint8"
                }
            ],
            "name": "setInflationRate",
            "outputs": [],
            "stateMutability": "nonpayable",
            "type": "function"
        },
        {
            "inputs": [
                {
                    "internalType": "uint256",
                    "name": "amount",
                    "type": "uint256"
                }
            ],
            "name": "stake",
            "outputs": [],
            "stateMutability": "nonpayable",
            "type": "function"
        },
        {
            "inputs": [
                {
                    "internalType": "uint256",
                    "name": "amount",
                    "type": "uint256"
                }
            ],
            "name": "withdraw",
            "outputs": [],
            "stateMutability": "nonpayable",
            "type": "function"
        }
    ],
    "bytecode": "0x60806040526005600460006101000a81548160ff021916908360ff1602179055506002600460016101000a81548160ff021916908360ff1602179055503480156200004957600080fd5b50604051620016253803806200162583398181016040528101906200006f919062000171565b600160008190555080600160006101000a81548173ffffffffffffffffffffffffffffffffffffffff021916908373ffffffffffffffffffffffffffffffffffffffff16021790555033600460026101000a81548173ffffffffffffffffffffffffffffffffffffffff021916908373ffffffffffffffffffffffffffffffffffffffff1602179055504260038190555050620001a3565b600080fd5b600073ffffffffffffffffffffffffffffffffffffffff82169050919050565b600062000139826200010c565b9050919050565b6200014b816200012c565b81146200015757600080fd5b50565b6000815190506200016b8162000140565b92915050565b6000602082840312156200018a576200018962000107565b5b60006200019a848285016200015a565b91505092915050565b61147280620001b36000396000f3fe608060405234801561001057600080fd5b50600436106101415760003560e01c8063819df2c4116100b8578063b88a802f1161007c578063b88a802f14610378578063bea0815114610382578063d5f39488146103b2578063e85f3454146103d0578063eb46260e146103ee578063eeee849b1461041e57610141565b8063819df2c4146102d25780638f32d59b146102f0578063a694fc3a1461030e578063ab32eb691461032a578063adca9b721461035a57610141565b80632e1a7d4d1161010a5780632e1a7d4d146101fc578063399080ec1461021857806357627259146102485780636a74a0fc146102665780636aa0838f1461028457806374b3c7ec146102a257610141565b80628cc262146101465780630c9e58d5146101765780631bff5220146101925780631fc03812146101b057806322420c6f146101e0575b600080fd5b610160600480360381019061015b9190610ff1565b61044e565b60405161016d9190611037565b60405180910390f35b610190600480360381019061018b919061108b565b610527565b005b61019a61060a565b6040516101a791906110c7565b60405180910390f35b6101ca60048036038101906101c5919061110e565b61061d565b6040516101d79190611037565b60405180910390f35b6101fa60048036038101906101f5919061108b565b610664565b005b6102166004803603810190610211919061110e565b610747565b005b610232600480360381019061022d9190610ff1565b610926565b60405161023f9190611037565b60405180910390f35b61025061096f565b60405161025d91906110c7565b60405180910390f35b61026e610982565b60405161027b9190611037565b60405180910390f35b61028c610988565b6040516102999190611037565b60405180910390f35b6102bc60048036038101906102b79190610ff1565b61098e565b6040516102c99190611037565b60405180910390f35b6102da6109a6565b6040516102e791906110c7565b60405180910390f35b6102f86109bd565b6040516103059190611156565b60405180910390f35b6103286004803603810190610323919061110e565b610a15565b005b610344600480360381019061033f9190610ff1565b610bf6565b6040516103519190611037565b60405180910390f35b610362610c0e565b60405161036f91906111d0565b60405180910390f35b610380610c34565b005b61039c60048036038101906103979190610ff1565b610e02565b6040516103a99190611037565b60405180910390f35b6103ba610e1a565b6040516103c791906111fa565b60405180910390f35b6103d8610e40565b6040516103e591906110c7565b60405180910390f35b61040860048036038101906104039190610ff1565b610e57565b6040516104159190611037565b60405180910390f35b6104386004803603810190610433919061110e565b610ea0565b6040516104459190611037565b60405180910390f35b600080600560008473ffffffffffffffffffffffffffffffffffffffff1673ffffffffffffffffffffffffffffffffffffffff1681526020019081526020016000205490506000600760008573ffffffffffffffffffffffffffffffffffffffff1673ffffffffffffffffffffffffffffffffffffffff16815260200190815260200160002054905060006104e283610ea0565b90506000826301e13380600354426104fa9190611244565b846105059190611278565b61050f91906112e9565b610519919061131a565b905080945050505050919050565b3373ffffffffffffffffffffffffffffffffffffffff16600460029054906101000a900473ffffffffffffffffffffffffffffffffffffffff1673ffffffffffffffffffffffffffffffffffffffff16146105ae576040517fc466007c00000000000000000000000000000000000000000000000000000000815260040160405180910390fd5b600a8160ff1611156105ec576040517f2b020ec600000000000000000000000000000000000000000000000000000000815260040160405180910390fd5b80600460016101000a81548160ff021916908360ff16021790555050565b600460009054906101000a900460ff1681565b600080820361062f576000905061065f565b600061063a83610ea0565b90506000836127108361064d9190611278565b61065791906112e9565b905080925050505b919050565b3373ffffffffffffffffffffffffffffffffffffffff16600460029054906101000a900473ffffffffffffffffffffffffffffffffffffffff1673ffffffffffffffffffffffffffffffffffffffff16146106eb576040517fc466007c00000000000000000000000000000000000000000000000000000000815260040160405180910390fd5b60148160ff161115610729576040517f55c62cbb00000000000000000000000000000000000000000000000000000000815260040160405180910390fd5b80600460006101000a81548160ff021916908360ff16021790555050565b336107518161044e565b600760008373ffffffffffffffffffffffffffffffffffffffff1673ffffffffffffffffffffffffffffffffffffffff168152602001908152602001600020819055504260038190555081600081036107d6576040517f9b677fa000000000000000000000000000000000000000000000000000000000815260040160405180910390fd5b82600560003373ffffffffffffffffffffffffffffffffffffffff1673ffffffffffffffffffffffffffffffffffffffff16815260200190815260200160002060008282546108259190611244565b92505081905550826002600082825461083e9190611244565b925050819055506000600160009054906101000a900473ffffffffffffffffffffffffffffffffffffffff1673ffffffffffffffffffffffffffffffffffffffff1663a9059cbb33866040518363ffffffff1660e01b81526004016108a492919061134e565b6020604051808303816000875af11580156108c3573d6000803e3d6000fd5b505050506040513d601f19601f820116820180604052508101906108e791906113a3565b905080610920576040517f8ecca7d100000000000000000000000000000000000000000000000000000000815260040160405180910390fd5b50505050565b6000600560008373ffffffffffffffffffffffffffffffffffffffff1673ffffffffffffffffffffffffffffffffffffffff168152602001908152602001600020549050919050565b600460019054906101000a900460ff1681565b60025481565b60035481565b60066020528060005260406000206000915090505481565b6000600460009054906101000a900460ff16905090565b6000600460029054906101000a900473ffffffffffffffffffffffffffffffffffffffff1673ffffffffffffffffffffffffffffffffffffffff163373ffffffffffffffffffffffffffffffffffffffff1614905090565b33610a1f8161044e565b600760008373ffffffffffffffffffffffffffffffffffffffff1673ffffffffffffffffffffffffffffffffffffffff16815260200190815260200160002081905550426003819055508160008103610aa4576040517f9b677fa000000000000000000000000000000000000000000000000000000000815260040160405180910390fd5b82600560003373ffffffffffffffffffffffffffffffffffffffff1673ffffffffffffffffffffffffffffffffffffffff1681526020019081526020016000206000828254610af3919061131a565b925050819055508260026000828254610b0c919061131a565b925050819055506000600160009054906101000a900473ffffffffffffffffffffffffffffffffffffffff1673ffffffffffffffffffffffffffffffffffffffff166323b872dd3330876040518463ffffffff1660e01b8152600401610b74939291906113d0565b6020604051808303816000875af1158015610b93573d6000803e3d6000fd5b505050506040513d601f19601f82011682018060405250810190610bb791906113a3565b905080610bf0576040517feb4c684700000000000000000000000000000000000000000000000000000000815260040160405180910390fd5b50505050565b60056020528060005260406000206000915090505481565b600160009054906101000a900473ffffffffffffffffffffffffffffffffffffffff1681565b33610c3e8161044e565b600760008373ffffffffffffffffffffffffffffffffffffffff1673ffffffffffffffffffffffffffffffffffffffff16815260200190815260200160002081905550426003819055506000600760003373ffffffffffffffffffffffffffffffffffffffff1673ffffffffffffffffffffffffffffffffffffffff1681526020019081526020016000205490506000600160009054906101000a900473ffffffffffffffffffffffffffffffffffffffff1673ffffffffffffffffffffffffffffffffffffffff1663a9059cbb33846040518363ffffffff1660e01b8152600401610d2b92919061134e565b6020604051808303816000875af1158015610d4a573d6000803e3d6000fd5b505050506040513d601f19601f82011682018060405250810190610d6e91906113a3565b905080610da7576040517feb4c684700000000000000000000000000000000000000000000000000000000815260040160405180910390fd5b81600660003373ffffffffffffffffffffffffffffffffffffffff1673ffffffffffffffffffffffffffffffffffffffff1681526020019081526020016000206000828254610df6919061131a565b92505081905550505050565b60076020528060005260406000206000915090505481565b600460029054906101000a900473ffffffffffffffffffffffffffffffffffffffff1681565b6000600460019054906101000a900460ff16905090565b6000600660008373ffffffffffffffffffffffffffffffffffffffff1673ffffffffffffffffffffffffffffffffffffffff168152602001908152602001600020549050919050565b60008060025403610eb45760009050610f89565b600060035442610ec49190611244565b03610ed25760009050610f89565b60008203610ee35760009050610f89565b6000600254836064610ef59190611278565b610eff91906112e9565b905060006064600460009054906101000a900460ff1660ff16600254610f259190611278565b610f2f91906112e9565b905060006064836064600460019054906101000a900460ff166064610f549190611407565b60ff1685610f629190611278565b610f6c91906112e9565b610f769190611278565b610f8091906112e9565b90508093505050505b919050565b600080fd5b600073ffffffffffffffffffffffffffffffffffffffff82169050919050565b6000610fbe82610f93565b9050919050565b610fce81610fb3565b8114610fd957600080fd5b50565b600081359050610feb81610fc5565b92915050565b60006020828403121561100757611006610f8e565b5b600061101584828501610fdc565b91505092915050565b6000819050919050565b6110318161101e565b82525050565b600060208201905061104c6000830184611028565b92915050565b600060ff82169050919050565b61106881611052565b811461107357600080fd5b50565b6000813590506110858161105f565b92915050565b6000602082840312156110a1576110a0610f8e565b5b60006110af84828501611076565b91505092915050565b6110c181611052565b82525050565b60006020820190506110dc60008301846110b8565b92915050565b6110eb8161101e565b81146110f657600080fd5b50565b600081359050611108816110e2565b92915050565b60006020828403121561112457611123610f8e565b5b6000611132848285016110f9565b91505092915050565b60008115159050919050565b6111508161113b565b82525050565b600060208201905061116b6000830184611147565b92915050565b6000819050919050565b600061119661119161118c84610f93565b611171565b610f93565b9050919050565b60006111a88261117b565b9050919050565b60006111ba8261119d565b9050919050565b6111ca816111af565b82525050565b60006020820190506111e560008301846111c1565b92915050565b6111f481610fb3565b82525050565b600060208201905061120f60008301846111eb565b92915050565b7f4e487b7100000000000000000000000000000000000000000000000000000000600052601160045260246000fd5b600061124f8261101e565b915061125a8361101e565b925082820390508181111561127257611271611215565b5b92915050565b60006112838261101e565b915061128e8361101e565b925082820261129c8161101e565b915082820484148315176112b3576112b2611215565b5b5092915050565b7f4e487b7100000000000000000000000000000000000000000000000000000000600052601260045260246000fd5b60006112f48261101e565b91506112ff8361101e565b92508261130f5761130e6112ba565b5b828204905092915050565b60006113258261101e565b91506113308361101e565b925082820190508082111561134857611347611215565b5b92915050565b600060408201905061136360008301856111eb565b6113706020830184611028565b9392505050565b6113808161113b565b811461138b57600080fd5b50565b60008151905061139d81611377565b92915050565b6000602082840312156113b9576113b8610f8e565b5b60006113c78482850161138e565b91505092915050565b60006060820190506113e560008301866111eb565b6113f260208301856111eb565b6113ff6040830184611028565b949350505050565b600061141282611052565b915061141d83611052565b9250828203905060ff81111561143657611435611215565b5b9291505056fea2646970667358221220d6e70cbe905ad56389662576710b91ee933df1435286904592ba71a0a1d0445864736f6c63430008180033",
    "linkReferences": {},
    "deployedLinkReferences": {}
}